:100000006F00606E00000000CA040000CC04000015
:1000100000000000000000000000000000000000E0
:1000200000000000000000000000000000000000D0
:10003000E406000000000000E406000000000000EC
:10004000E4060000E4060000E4060000E406000008
:10005000E4060000E4060000E4060000E4060000F8
:10006000E4060000E4060000E4060000E4060000E8
:10007000E4060000E4060000E4060000E4060000D8
:10008000E4060000E4060000E4060000E4060000C8
:10009000E4060000E4060000E406000000000000A2
:1000A000511126C022C206C4828282441244A24058
:1000B00031018280634E050263C305042E86AA8542
:1000C0007D5515C285466378B6006356C0000606A6
:1000D0008606E36CB6FE014563E4C500918D558D3F
:1000E00085820582F5FA82808682C93F2E858282CA
:1000F0003305A04063D70500B305B040C1B7B305D1
:10010000B0408682653F3305A0408282868263C705
:100110000500634905005D372E858282B305B04036
:10012000E35B05FE3305A040513F3305B0408282BA
:100130000000EFF2FFF6111185454545EF00B00DC7
:10014000854537052000EF00F00E99477C80F14788
:100150003EC48A858D47371501403EC223110100F8
:10016000EF006060E167375400409387076A130728
:10017000004002C802CA02CC3EC66C00916713055B
:100180000440FC81F883FC84EF00A06585451305DD
:100190000440EF002073710109BFEFF27FF0B75701
:1001A00000402A84AE84138707403A85B7050200D1
:1001B000EF00C078B7570040138707407DF58545AD
:1001C0003A85EF00A071B707030085073757004055
:1001D000BE8513050740EF000075B70703003757CA
:1001E0000040850765D50C200146130507408605AC
:1001F00093F5E50F37040700EF00C07113042408DE
:10020000B757004013850740A285EF00C071B7576C
:1002100000407DD581451385074037040700EF0076
:10022000206F13044408B757004013850740A28588
:10023000EF00606FB75700407DD5A6851385074056
:1002400037040700EF00C06C13044408B7540040A3
:10025000A28513850440EF00006D6DD98545138597
:100260000440EF00406991B593178501E18763D39E
:10027000070001A0EFF2DFE241112A8413050040DC
:10028000AE84EF00B0022AC29305E00A0A854080DE
:10029000C48021370A859305500D01370A859305DF
:1002A0000008E53D0A859305800AC53D0A85FD45A0
:1002B000ED350A859305300DCD350A85930500048B
:1002C000E93D0A8593050004C93D0A8593050002AE
:1002D000E9350A858145D1350A859305D008753DF4
:1002E0000A85D1455D3D0A859305A00D7D350A85BA
:1002F000894565350A859305100845350A85814588
:10030000693D0A859305900D493D0A85C5457135BE
:100310000A859305B00D51350A858145BD3D0A8595
:100320009305400A9D3D0A859305E002BD350A8587
:100330009305F00A9D35024592454101BDB3EFF2A8
:100340003FD6B75700402A84AE84138707403A85CA
:10035000B7050200E523B75700401387074065F94A
:1003600085453A85A52BB707030085073757004019
:10037000BE8513050740452BB707030037570040DC
:1003800085076DD50C20014613050740860593F5BA
:10039000E50F37040700BD2B13042408B7570040AE
:1003A00013850740A2854123B757004065D99305BF
:1003B00000041385074037040700992B13044408F1
:1003C000B757004013850740A285B12BB7570040AF
:1003D00065D9A6851385074037040700152B13043C
:1003E0004408B7540040A285138504402D2B75D9CD
:1003F00085451385044001234DB9B335B0008146CE
:10040000B305B040130600081303004001475C41E8
:10041000B697BA978CA30507E31BC7FE9386060819
:10042000E39666FE8280EFF2BFC7AE8493051008A4
:100430002A84A533A68522858D3385B9EFF25FC660
:10044000AE84930520022A84893BA6852285B13398
:100450008D452285993391B9EFF29FC4AE849305FF
:1004600010022A841D3BA6852285053B9305F007D3
:10047000228525331DB9EFF2BFC261112A8781465B
:10048000014481443A85A28536C23AC0453F0247BD
:1004900093F5F40F3A85C937024792465C433A8593
:1004A000A697B6978C238504593D93070008024709
:1004B0009246E399F4FC05041374F40FA147938664
:1004C0000608E310F4FC2101CDB601A001A0EFF273
:1004D0003FBD7111AA841304000BA28526857539CE
:1004E000814526855D39C145268545399307000834
:1004F000814526853EC0A1358247FD17F5FB0504E1
:100500001374F40F9307400BE319F4FC110171BE4F
:10051000EFF21FB9611105459121B92A1D2B11393F
:10052000930500021305C00381332AC02EC20A8539
:100530008545E1359305400B0A85F5350A85253F4C
:100540000A85713701A0EFF2BFB5371402401C4095
:100550003707FFF8611193E717001CC05C40414565
:10056000F98F5CC01C403707F7FE7D17F98F1CC060
:100570001C403707FCFF7D17F98F1CC05C4041779A
:100580007D17F98F5CC0B7079F001CC4D92E1C4C87
:100590003706020093E707021CCCB717014003A7F8
:1005A0000740938607401377F7F023A0E74003A79F
:1005B00007401367070823A0E74089479CCA02C089
:1005C00002C21C4C37070140A16693E717001CCC00
:1005D0005C43D58F5CC31C404167B7160240D98F7E
:1005E0001CC009679C42F18F3EC2824785073EC00E
:1005F000924781E78247E397E7FEB71702409C43A3
:100600001397E7006358070685473EC212478547A0
:100610006310F706B72702409843C176FD16719B19
:1006200098C398431367170098C3B7170240D8437D
:10063000D8C3D843758FD8C3D843C166558FD8C3A4
:100640009843B7060001558F98C3984393166700E7
:10065000E3DD06FED843B7160240719BD8C3D843EA
:1006600013672700D8C32147DC42B18BE39EE7FE26
:10067000210125BC02C259BFEFF29FA237170240E9
:100680005C43370400209146B18B13040401638559
:10069000D700A1466382D704B7376E0193870760FE
:1006A0001CC0B7160240DC420840918313F7F700E4
:1006B000B707002093870700BA978C23DC4293F595
:1006C000F50F93F707083357B50081E7EFF01F9F49
:1006D0002A8718C06FF07F9D5C43B777DC02938751
:1006E00007C07DBF01A0970100209381A11B13814A
:1006F00001F6170500001305A54C9705002093850A
:1007000065901386818063FAC5008322050023A0CB
:10071000550011059105E3EAC5FE13858180938597
:10072000C1816377B500232005001105E36DB5FE97
:10073000B722000093820288739002308D4273903A
:100740004280970200009382E28B93E23200739022
:100750005230EFF05FDF970200009382A2DB7390CC
:10076000123473002030944593F7060193F2F6009B
:1007700081C7DC41B3E2F20083D3050093F7F30FA6
:10078000A5C303230500611122C226C081471304BB
:1007900080029304800405473316F70033F7C30043
:1007A0006312E602939527003D473317B7001347BE
:1007B000F7FF33736700B395B20033E36500639DC1
:1007C000860050C985072147E397E7FC12442320A0
:1007D0006500824421018280E39696FE10C9DDB750
:1007E0008280EFF2FF8B111146212A8428002EC04F
:1007F0005122C246C204C18093F404FCB7450F00E5
:10080000938505243685C20436C2C180EFF01F8B64
:10081000458D420541814AA01E209246C207C183F0
:10082000F99BC207C1831EA082479043E16793876B
:10083000076A9315160063E6C7043685EFF01F8834
:10084000AA874205418191466373D500914713956C
:10085000070141814AAC1E20024793E717001EA002
:100860001E2056233227C207C183D18E93F757BF6C
:10087000D58F1EA016275E27D58F1EA471016FF09D
:10088000DF828247EA23B167FD176310F502B29554
:100890003685EFF0BF82420541819317450199E308
:1008A00013651500A1675D8D75B7B387C5008E0709
:1008B000B385C7003685EFF07F804205418191679F
:1008C0005D8DE1BF1E2189C593E717001EA18280BF
:1008D000C207C183F99BC207C183CDBF1E2189C551
:1008E00093E707101EA18280C207C18393F7F7EF39
:1008F000C207C183C5BF1E2189C593E707201EA17A
:100900008280C207C18393F7F7DFC207C183C5BFE7
:100910000EA9828093F7E50F19C293E71500C2076D
:10092000C1831EA982805E290A2D42055D8D6D8DD1
:10093000220521810D8D1335150082805E215A29F3
:10094000C2076D8FC18309CB13D505017D8D13754A
:1009500005703335A00082800145828023A8A180E4
:100960008280371702401C430E0593F777F05D8DA8
:1009700008C38280EFF2CFF2371702405C43914602
:100980002A84B18B6385D700A1466380D708B73727
:100990006E01938707601CC0B7160240DC4291834A
:1009A00013F7F700B707002093878702BA978C23C5
:1009B000DC42184093F5F50F93F707083355B7005D
:1009C00081E73A85EFF08FEF48C008C448C4B717F5
:1009D0000240DC438D46AD83FD8B13D737008A0779
:1009E000F18BD98F13F6370113F7370063F4C60084
:1009F000138747FFB707002093874701BA978C23D7
:100A0000EFF0CFEB08C86FF04FEA5C43B777DC023A
:100A1000938707C049B799C5371702401C4F5D8DB2
:100A200008CF8280B7170240984F1345F5FF798DA4
:100A300088CF828099C5371702405C4F5D8D48CFC3
:100A40008280B7170240D84F1345F5FF798DC8CF84
:100A50008280EFF2EFE4B707002003A50701B71586
:100A60007A0093850520EFF06FE51375F50F238B62
:100A7000A18093175500898F8A073E950E05239A0A
:100A8000A1806FF08FE237070020130787031C4314
:100A90009386C1813E956369D500938601E663E53F
:100AA000A60008C33E858280FD57EDBF97F7FF1F64
:100AB0009387475FAA85884309A0411126C2938482
:100AC0003500F19806C622C4A104B14763F5F404C9
:100AD000B14463E4B4042AC0F92813878180144325
:100AE0008247368439E01387C180184301EB3E8585
:100AF00081453EC0692823A6A18082473E85A68500
:100B00003EC071207D5782476314E506314798C384
:100B10003E855D2029A0E3DE04FAB1471CC10145F2
:100B2000B24022449244410182801840058F634EB6
:100B300007022D466376E60018C03A9404C031A03F
:100B400058406392860223A4E1803E85B5201305B8
:100B5000B400130744006199B307E540F1D33E9414
:100B6000098F18C075BFD8C2CDB7A28640409DBFBF
:100B7000130435007198E30385FCB305A4403E855A
:100B80003EC031207D578247E31AE5FA41B7511143
:100B900022C22A842E8523AC018006C4ED35FD5780
:100BA0006317F500938781819C4391C31CC0A240C9
:0C0BB000124431018280828082800000AB
:100BBC0001020304050607080102030405060708E1
:100BCC00006CDC020204060804080C100810182043
:100BDC001020304020406080010203040506070805
:100BEC000102030405060708BC00002000000000F9
:100BFC0000000000000000000000000000000000E9
:100C0C0000000000000000000000000000000000D8
:100C1C0000000000000000000000000000000000C8
:100C2C0000000000000000000000000000000000B8
:100C3C0000000000000000000000000000000000A8
:100C4C000000000000000000000000000000000098
:080C5C003C0000200000000034
:00000001FF
