:100000006F00500B000000002406000026060000D0
:1000100000000000000000000000000000000000E0
:1000200000000000000000000000000000000000D0
:10003000B208000000000000B2080000000000004C
:10004000B2080000B2080000B2080000B2080000C8
:10005000B2080000B2080000B2080000B2080000B8
:10006000B2080000B2080000B2080000B2080000A8
:10007000B2080000B2080000B2080000B208000098
:10008000B2080000B2080000B2080000B208000088
:10009000B2080000B2080000B20800000000000032
:1000A000511126C022C206C4828282441244A24058
:1000B000310182802A86014593F6150091C232955E
:1000C00085810606F5F9828000000000634E050276
:1000D00063C305042E86AA857D5515C285466378BF
:1000E000B6006356C00006068606E36CB6FE014500
:1000F00063E4C500918D558D85820582F5FA828075
:100100008682C93F2E8582823305A04063D70500D1
:10011000B305B040C1B7B305B0408682653F330533
:10012000A0408282868263C70500634905005D376F
:100130002E858282B305B040E35B05FE3305A04007
:10014000513F3305B04082820000EFF27FF511117C
:100150002A8485454545EF009029854537052000CF
:10016000EF00D02A99477C80F1473EC48A858D47AD
:10017000371501403EC223110100EF00A07B22C6CB
:100180003754004091671307004002C802CA02CCEE
:100190006C0013050440FC81F883FC84EF00F0013F
:1001A000854513050440EF00700F7101FDBDEFF2AE
:1001B0003FEFB75700402A84AE84138707403A8543
:1001C000B7050200EF001015B7570040138707402E
:1001D0007DF585453A85EF00F00DB70703008507EB
:1001E00037570040BE8513050740EF005011B70791
:1001F000030037570040850765D50C2001461305DD
:100200000740860593F5E50F37040700EF00100E51
:1002100013042408B757004013850740A285EF0058
:10022000100EB75700407DD5814513850740370430
:100230000700EF00700B13044408B7570040138504
:100240000740A285EF00B00BB75700407DD5A685CB
:100250001385074037040700EF0010091304440812
:10026000B7540040A28513850440EF0050096DD9B2
:10027000854513850440EF00900505BD9317850162
:10028000E18763D3070001A0B94763E3B70001A08A
:10029000EFF21FE14111AA841305803E2E84EF0086
:1002A000302A13050040EF00F0342AC29305E00A1B
:1002B0000A854480C080E53D9305500D0A85C53D03
:1002C0009305000F0A85E5359305800A0A85C53533
:1002D0009305F4FF93F5F50F0A85D13D9305300D95
:1002E0000A85F135930500040A85D135930500048C
:1002F0000A85753D930500020A85553D81450A85AD
:100300007D359305D0080A855D35D1450A8545358B
:100310009305A00D0A85613D9307000281456303A3
:10032000F400C1450A8561350A85930510084135F9
:100330000A858145AD3D0A859305900D8D3D0A8561
:10034000C545B5350A859305B00D95350A858145B6
:10035000B93D0A859305400A993D0A859305E00257
:10036000B9350A859305F00A993502459245410150
:100370002DBB1C316379F60293978501E18763C435
:100380000702935736009E07AE974C4113777600CD
:1003900005463316E600BE95620683870500618632
:1003A00081C65D8E90A182801346F6FF7D8EDDBFF3
:1003B000B335B00001468147B305B04013030008D0
:1003C00018310D8363E3E7008280814658413297FC
:1003D00036970CA38506E39B66FE850793F7F70F18
:1003E00013060608F1BFEFF2BFCBAE8493051008E9
:1003F0002A84753BA68522855D3B45B9EFF25FCA2D
:100400005111930520022A845D33814522854533AD
:100410008D452285693B930510022285493B814524
:10042000228571339305F00722855133B75400407C
:10043000938704403E85B7050200EF00A06DB757D3
:100440000040938707407DF5138504408545B70438
:1004500003008D258504B757004013850740A68506
:10046000EF00E069B75700407DD50C2001461385A9
:100470000740860593F5E50FB7040700852D9384A3
:100480002408B757004013850740A6858D2DB75720
:10049000004065D99305000413850740B7040700A1
:1004A000A1259384440837550040A68513050540CF
:1004B000B92575D90146814718300D8363EAE700F5
:1004C0003755004085451305054011253101F1BE22
:1004D000B7540040814693840440584026853EC46A
:1004E000329736970C2332C236C0FD2BA2471246F4
:1004F00082463707070013074708BA85268536C4A2
:1005000032C23EC0ED2BB7070700138747081246DB
:100510008247A2467DD1850613070008E39FE6FACD
:10052000850793F7F70F1306060879B7EFF25FB761
:100530009C21011136C69386F7FF3EC093D7F64142
:100540009D8BB6978D87850793F7F70F80312AC467
:10055000AE84130506FDBE853AC83EC2A13EA28503
:10056000913E4247930225003A949377F40F630C2F
:10057000F7040144B383540035A8135634001E9683
:100580003ECEB24710229375740085462245B3963D
:10059000B600B305F400F18E93F5F50F3A8616CC4C
:1005A0001ECA3AC8F933F247E242D2434247050431
:1005B0001374F40F8246E312D4FC924605071377B6
:1005C000F70FB6926DB70561CDB403C3050093076D
:1005D000000863FF670201A00C203E851AC832C6DE
:1005E0003EC4C93C924732462687B386A7000245DF
:1005F00093F6F60FA2851D3FA2474243850793F766
:10060000F70F3307F3000306070079F6510171BCB9
:10061000EFF21FA93111BA8436C232832E842AC068
:100620008147C5B701A001A0EFF29FA721110545A1
:100630001123112CE12D716513050520EF00E073E6
:1006400061651305056A1136930500021305C003A1
:1006500035312AC22EC448008145993B8146014666
:1006600085454800393385460546854548001133A0
:100670008946094685454800ED398D460D46854534
:100680004800C5399305400B4800B13B854513052B
:100690000002B12B85477C8637150140C1473ECA11
:1006A0006C008D47130505403EC869244800B933E6
:1006B000014485641344F4FF3715014022868545C3
:1006C00013050540F5241305803E9D2D85650147E2
:1006D0008146138644F09385C5F04800FD354800F7
:1006E000313B9307F00F29453EC0992D8247FD17F6
:1006F00093F7F70FEDFB9307E00F29453EC08925DF
:100700008247FD1793F7F70FEDFB814548004D3108
:1007100055B7EFF2FF98371402401C403707FFF837
:10072000611193E717001CC05C404145F98F5CC024
:100730001C403707F7FE7D17F98F1CC01C40370798
:10074000FCFF7D17F98F1CC05C4041777D17F98F46
:100750005CC0B7079F001CC4CD261C4C37060200A6
:1007600093E707021CCCB717014003A70740938605
:1007700007401377F7F023A0E74003A7074013676C
:10078000070823A0E74089479CCA02C002C21C4C4C
:1007900037070140A16693E717001CCC5C43D58F57
:1007A0005CC31C404167B7160240D98F1CC0096763
:1007B0009C42F18F3EC2824785073EC0924781E747
:1007C0008247E397E7FEB71702409C431397E70081
:1007D0006359070685473EC2124785476310F706EF
:1007E000B72702409843C176FD16719B98C3984382
:1007F0001367170098C3B7170240D843D8C3D8432C
:10080000758FD8C3D843C166558FD8C39843B706F0
:100810000001558F98C3984393166700E3DD06FEE9
:10082000D843B7160240719BD8C3D843136727003B
:10083000D8C32147DC42B18BE39EE7FE21016FF074
:10084000DF8602C251BFEFF2BF85371702405C431B
:10085000370400209146B18B130404016385D7004F
:10086000A1466382D704B7376E01938707601CC027
:10087000B7160240DC420840918313F7F700B70730
:10088000002093870700BA978C23DC4293F5F50F7D
:1008900093F707083357B50081E7EFF0BF832A8746
:1008A00018C06FF09F805C43B777DC02938707C066
:1008B0007DBF01A0970100209381C1FE138101F645
:1008C000171500001305050597F5FF1F9385857320
:1008D0001386818063FAC5008322050023A055009A
:1008E00011059105E3EAC5FE138581809385C181D9
:1008F0006377B500232005001105E36DB5FEB7222F
:10090000000093820288739002308D42739042807F
:1009100097F2FFFF9382026F93E23200739052309E
:10092000EFF03FDF97020000938242D073901234C1
:1009300073002030944593F7060193F2F60081C7C7
:10094000DC41B3E2F20083D3050093F7F30FA5C3B4
:1009500003230500611122C226C0814713048002CF
:100960009304800405473316F70033F7C30063127E
:10097000E602939527003D473317B7001347F7FF6B
:1009800033736700B395B20033E36500639D86005F
:1009900050C985072147E397E7FC124423206500EF
:1009A000824421018280E39696FE10C9DDB78280E1
:1009B00019C20CC982804CC98280EFF26FEE11110E
:1009C00046212A8428002EC05122C246C204C1807A
:1009D00093F404FCB7450F00938505243685C204C3
:1009E00036C2C180EFF00FEF458D420541814AA02C
:1009F0001E209246C207C183F99BC207C1831EA075
:100A000082479043E1679387076A9315160063E670
:100A1000C7043685EFF00FECAA8742054181914665
:100A20006373D50091471395070141814AAC1E209D
:100A3000024793E717001EA01E2056233227C20745
:100A4000C183D18E93F757BFD58F1EA016275E277F
:100A5000D58F1EA471016FF04FE58247EA23B1677D
:100A6000FD176310F502B2953685EFF0AFE642054B
:100A700041819317450199E313651500A1675D8DC9
:100A800075B7B387C5008E07B385C7003685EFF00D
:100A90006FE44205418191675D8DE1BF1E2189C5EB
:100AA00093E717001EA18280C207C183F99BC2078A
:100AB000C183CDBF1E2189C593E707101EA1828087
:100AC000C207C18393F7F7EFC207C183C5BF1E21D9
:100AD00089C593E707201EA18280C207C18393F7CF
:100AE000F7DFC207C183C5BF0EA9828093F7E50F68
:100AF00019C293E71500C207C1831EA982805E292F
:100B00000A2D42055D8D6D8D220521810D8D1335D8
:100B1000150082805E215A29C2076D8FC18309CBDF
:100B200013D505017D8D137505703335A0008280C6
:100B30000145828023A8A1808280371702401C4390
:100B40000E0593F777F05D8D08C38280EFF24FD5E5
:100B5000371702405C4391462A84B18B6385D700E6
:100B6000A1466380D708B7376E01938707601CC022
:100B7000B7160240DC42918313F7F700B707002055
:100B800093878702BA978C23DC42184093F5F50FC0
:100B900093F707083355B70081E73A85EFF08FD315
:100BA00048C008C448C4B7170240DC438D46AD8333
:100BB000FD8B13D737008A07F18BD98F13F63701D6
:100BC00013F7370063F4C600138747FFB707002009
:100BD00093874701BA978C23EFF0CFCF08C86FF007
:100BE000CFCC5C43B777DC02938707C049B799C580
:100BF000371702401C4F5D8D08CF8280B717024027
:100C0000984F1345F5FF798D88CF828099C53717A6
:100C100002405C4F5D8D48CF8280B7170240D84FAD
:100C20001345F5FF798DC8CF8280EFF26FC7162983
:100C3000F577FD17F58FF621DA252111D58F1EA93D
:100C40005625FD779387379FF58FD6212A842EC0AE
:100C5000D58F9625D58FB625D58F5EA55E29C2077F
:100C6000C18393F7F7CF5D8F5AA94800C535B747C1
:100C700001409387078082456312F406C2475A24D5
:100C8000139517003E9542070E0541873E958C410E
:100C9000635807048605EFF0EFC3930540062AC0AA
:100CA000EFF04FC3824793144500930540063E85FD
:100CB000EFF00FC55E24C207C18763D507020E059A
:100CC0009305400613052503EFF0CFC01D89C98C9D
:100CD000C204C18006A461016FF02FBDB24745B7C1
:100CE0008A0555BF12059305400613052503EFF04D
:100CF0006FBE3D89E9BF91C55E250967D98F5EA5A5
:100D000082805A25F977FD17F98FD5BFEFF24FB9D9
:100D1000B707002003A50701B7157A0093850520C2
:100D2000EFF04FBB1375F50F238BA1809317550080
:100D3000898F8A073E950E05239AA1806FF0EFB642
:100D4000EFF20FB637F400E05C40AA85F99B5CC077
:100D500003D54181EFF00FB608C8232404001C40DE
:100D600093E717001CC0B7F700E0D843058B75DF89
:100D70009843799B98C36FF04FB3EFF26FB22A8418
:100D8000116511118545130505029535930700027C
:100D90007C80371501408D473EC28A85E1471305A7
:100DA00005403EC4413E22C637440140B707080013
:100DB0006C00130504803ECA02C8231C0100B5352F
:100DC000854513050480053F71016FF00FAE3707AD
:100DD0000020130787031C439386C1813E956369F6
:100DE000D500938601E663E5A60008C33E858280B0
:100DF000FD57EDBF97F7FF1F9387C72AAA85884342
:100E000009A0411126C293843500F19806C622C478
:100E1000A104B14763F5F404B14463E4B4042AC007
:100E2000F9281387818014438247368439E0138779
:100E3000C180184301EB3E8581453EC0692823A649
:100E4000A18082473E85A6853EC071207D5782479E
:100E50006314E506314798C33E855D2029A0E3DE93
:100E600004FAB1471CC10145B240224492444101F9
:100E700082801840058F634E07022D466376E60098
:100E800018C03A9404C031A058406392860223A44B
:100E9000E1803E85B5201305B40013074400619935
:100EA000B307E540F1D33E94098F18C075BFD8C28F
:100EB000CDB7A28640409DBF130435007198E3036F
:100EC00085FCB305A4403E853EC031207D57824756
:100ED000E31AE5FA41B7511122C22A842E8523ACC8
:100EE000018006C4ED35FD576317F50093878181B6
:100EF0009C4391C31CC0A240124431018280828075
:100F00008280000030313031303100001010AAAA48
:100F100000000000000000000000000000000000D1
:100F20000000000000000000000000000000FFFFC3
:100F3000FFFFFFFFFFFFFFFFFFFFFFFFFFFFAAAA6B
:100F4000FFFFFFFFFFFFFFFFFFFFFFFFFFFFD5D505
:100F5000B6B6FFFF7F7FFFFF5F5FFFFF7F7FFFFF73
:100F60005F5FFFFF7F7FFFFF5F5FFFFF7F7FADADB5
:100F7000DADADBDBB5B52424EAEA0101D0D08080DF
:100F8000D0D00101F0F00000A0A00000E8E86A6AFB
:100F9000BBBBFFFF6F6FFFFF7F7FFFFFBFBFFFFF89
:100FA000BFBFFFFFBFBFFFFF3F3FFFFFEFEF6D6D15
:100FB000D5D5DBDBEEEE0404B1B15050E8E800001B
:100FC000E0E00000A8A80000E0E00000D0D0D6D605
:100FD000D6D6FFFFBFBFFFFF6F6FFFFFBFBFFFFF93
:100FE0007F7FFFFF5F5FFFFF7F7FFFFF5F5F5B5BD9
:100FF000F5F5B6B65B5B4141D4D40808F1F10000C9
:10100000A0A00101D0D00000F0F00000A0A0D5D534
:101010005656FFFF7F7FFFFF5F5FFFFF7F7FFFFF72
:101020005F5FFFFF7F7FFFFF5F5FFFFF7F7F7D7D54
:10103000DFDFABABEAEA9191D4D40404F0F0010114
:10104000A1A10000D0D00000F0F00101A0A0DADAE8
:10105000D6D6FFFFBFBFFFFF7F7FFFFF5F5FFFFFB2
:10106000BFBFFFFF7F7FFFFF5F5FFFFFBFBFB6B662
:10107000BEBE6D6DD5D58282F2F21111C8C80000D6
:10108000F0F00000C0C00000E8E80000D0D05D5DD6
:10109000ABABF7F77F7FFFFF5F5FFFFF7F7FFFFF58
:1010A0005F5FFFFF7F7FFFFFBFBFFFFF3F3FB6B622
:1010B000BDBD6D6DEBEB9191A8A80202D2D20000EC
:1010C000E0E00101D0D00000F0F00000A0A06D6DC4
:1010D000EBEBFFFFBFBFFFFFBFBFFFFF7F7FFFFF48
:1010E0005F5FFFFFBFBFFFFFBFBFFFFF3F3F6D6DF4
:1010F0003B3BDADA161622220808080821210101F2
:1011000000000000000000000000000000000000DF
:1011100000000000000000000000000000000000CF
:101120000000000000000000C0C00000A0A00000FF
:10113000F0F0FEFEBFBFFEFEFFFFFEFE7F7FFEFE65
:101140007F7FFEFEFFFFFFFF7F7FFFFF7F7FFFFFB1
:101150005F5F0000E0E0AAAA92920101E0E00000D7
:1011600080800202E0E0010140400000A0A00101F7
:10117000A0A0FFFFFFFFFFFF7F7FFFFFFFFFFFFF3D
:101180007F7FFFFF7F7FFFFFFFFFFFFF7F7FFFFF6F
:101190005F5F0000E0E0A5A594940000E0E001019D
:1011A00080800000E0E0010140400000A0A00101BB
:1011B000D0D0FFFF7F7FFFFFFFFFFFFF7F7FFFFF9D
:1011C000FFFFFFFF7F7FFFFF7F7FFFFFFFFFFFFF2F
:1011D000AFAF0000D0D05555A2A20000E0E002025F
:1011E00040400101D0D00000C0C00202A0A0000019
:1011F000D0D0FFFF7F7FFFFFFFFFFFFF7F7FFFFF5D
:101200007F7FFFFFFFFFFFFF7F7FFFFF7F7FFFFFEE
:101210005F5F0000D0D0AAAAA2A20101E0E0010114
:1012200040400000A0A00101E0E0000040400000BC
:10123000C0C0FFFF7F7FFFFFFFFFFFFF7F7FFFFF3C
:10124000FFFFFFFF7F7FFFFF7F7FFFFFFFFFFFFFAE
:101250003F3F0000E0E0555592920000E0E00202BE
:1012600040400101A0A00000E0E002024040000078
:10127000A0A0FFFFFFFFFFFF7F7FFFFF7F7FFFFF3C
:10128000FFFFFFFF7F7FFFFF7F7FFFFFFFFFFFFF6E
:10129000BFBF0000E0E0494992920101E0E0000098
:1012A00040400101A0A00000E0E00101404000003A
:1012B000D0D0FFFF7F7FFFFFFFFFFFFF7F7FFFFF9C
:1012C000FFFFFFFFBFBFFFFFFFFFFFFF7F7FFFFFAE
:1012D0005F5F0000E0E0A5A544440000D0D002021A
:1012E000C0C00000A0A00000A0A00101C0C001017A
:1012F0004040FFFF7F7FFFFF7F7FFFFF7F7FFFFF7C
:101300007F7FFFFF7F7FFFFF7F7FFFFF7F7FFFFFED
:101310005F5FFFFFFDFDFFFF7F7FFFFF7F7FFFFF21
:10132000FFFFFFFFBFBFFFFFFFFFFFFF7F7F2D2DF1
:10133000D9D95252A2A20101E8E80101808000003F
:10134000E0E0000040400202D0D00101A0A0FFFF79
:10135000FFFFEFEFBFBFFFFFFFFFFFFFBFBFFFFFBD
:10136000FFFFFFFFBFBFFFFFFFFFFFFFBFBFAAAA37
:101370005A5A4A4AE1E10000A4A40202C0C0000097
:1013800050500000C0C00202A0A00000E0E0FFFF3B
:10139000FFFFFFFFBFBFFFFFFFFFFFFF7F7FFFFFDD
:1013A0007F7FFFFF7F7FFFFFFFFFFFFF5F5F6A6AB7
:1013B000EDED8A8A90902020E2E201014040010197
:1013C000D0D00000C0C00202A0A00101A0A0FFFF79
:1013D0007F7FFFFFFDFDFFFFBFBFFFFF7F7FFFFFA1
:1013E000FFFFFFFFBFBFFFFFFFFFFFFF7F7F5B5BD5
:1013F000B5B54444C9C92222D0D00101A0A0000043
:10140000C0C0000050500202A0A00101C0C0FFFFF8
:101410007F7FFFFFFFFFFFFF5F5FFFFFFFFFFFFF1C
:101420007F7FFFFF7F7FFFFF7F7FFFFFFFFF494938
:10143000DADA9292A0A00101EAEA2020808001017C
:10144000E0E0010140400000A0A00202E0E0FDFD5C
:10145000FFFFFFFFBFBFFFFFFFFFFFFFBFBFFFFF9C
:10146000FFFFFFFFBFBFFFFFFFFFFFFF7F7F9696DE
:10147000B4B42828C9C90202D0D00000A2A200003A
:10148000C0C00202A0A00000A0A00101E0E0BFBF18
:10149000FFFF7F7FFFFFFFFFFFFFBFBFFFFF7F7FDC
:1014A000FFFFFFFFFFFFBFBFFFFF7F7F5656D9D96A
:1014B000A1A1E2E2040448480000A0A00101E0E08C
:1014C000000040400202D0D00101C0C0FEFE7F7F7C
:1014D000FFFFDFDFFFFFFFFFFFFF7F7FFFFF7F7F5C
:1014E000FFFF7F7FFFFFFFFFFFFFBFBFB5B52424D6
:1014F0004A4A1212000040400101040401010000A8
:10150000000000000202000000000000D2D2B6B6C7
:101510000A0AE1E1202044440000D0D00000C0C00D
:101520000000A0A00000A0A00000E0E0FFFF7F7F7F
:10153000FFFFFFFFFFFFBFBFFFFF7F7FFFFFFFFF3B
:10154000FFFFBFBFFFFF7F7FFFFFFFFFDBDBB6B605
:101550000404C9C95050A0A00101E0E000004040CF
:101560000202D0D00101A0A00000C0C0FFFFBEBE9B
:10157000FFFFFFFFFFFFBFBFFFFFFFFFFFFF7F7FFB
:10158000FFFF7F7FFFFF7F7FFFFFFFFF6A6AABAB3D
:101590001414D4D44242A1A10000A0A00101A0A033
:1015A0000101C0C00000D0D001014040FFFF7F7F9B
:1015B000FFFFFFFFFFFF5F5FFFFFFFFFFFFF7F7F7B
:1015C000FFFF7F7FFFFF7F7FFFFFFFFF6B6BB7B7E3
:1015D0009494A8A80101E2E2000080800101E0E00B
:1015E000010140400000D0D00202A0A0EFEFFFFFB9
:1015F000FFFFBFBFFFFF7F7FFFFF7F7FFFFFFFFF7B
:10160000FFFF5F5FFFFFFFFFFFFF7F7F6D6DADADF2
:101610008282D2D21111A0A00000D0D00202C0C09C
:10162000010150500000C0C00101A0A0FEFEFFFF5C
:10163000FFFFBFBFFFFF7F7FFFFF7F7FFFFFDFDF7A
:10164000FFFF7F7FFFFFFFFFFFFF7F7F6D6DDBDB16
:101650008282D0D01111A2A20000A0A00101E0E07E
:10166000020240400000D0D00101C0C0FFFFFFFFD8
:10167000FFFFBFBFFFFFFFFFFFFFBFBFFFFFFFFF7A
:10168000FFFFBFBFFFFFFFFFFFFFBFBFD6D6B6B64E
:101690002828C9C90202A0A00000D0D00202C0C000
:1016A000000050500000C0C00202A0A0FFFFFFFFDA
:1016B000FFFFBFBFFFFFFFFFFFFF7F7FFFFF7F7FBA
:1016C000FFFFFFFFFFFF5F5FFFFFFFFFB6B6ADADA0
:1016D0000808D2D2A2A2A0A00101A0A00000A0A050
:1016E0000202E0E0010140400000A0A0FFFF7B7B80
:1016F000FFFF7F7FFFFF7F7FFFFF7F7FFFFF7F7FFA
:10170000FFFF7F7FFFFF7F7FFFFF7F7FF7F7DFDF39
:10171000FFFF7F7FFFFFFFFFFFFFBFBFFFFFFFFF59
:10172000FFFFBFBFFFFFFFFFFFFFBFBFB6B65656AD
:101730004141A9A91414E0E0000040400202D0D0C9
:101740000000C0C00000A0A00202E0E0FFFFFFFF19
:10175000FFFFBFBFFFFFFFFFFFFFBFBFFFFF7F7F99
:10176000FFFFFFFFFFFFBFBFFFFF7F7F6A6ADBDB7B
:101770001212A4A44040E1E1020240400101D0D095
:101780000000C0C00000A0A00101A0A0FFFFFFFF5B
:10179000FFFFBFBFFFFFFFFFFFFFBFBFFFFF7F7F59
:1017A000FFFFFFFFFFFFBFBFFFFF7F7F6A6ADBDB3B
:1017B0008A8AA4A42020D0D0020240400101E0E0A7
:1017C0000000C0C0000050500101C0C0FFFFFFFF7B
:1017D000FFFFBFBFFFFF7F7FFFFFFFFFFFFFBFBF19
:1017E000FFFF7F7FFFFFFFFFFFFFBFBFDBDBB6B663
:1017F0002020C8C88585A2A20000E0E0000040408B
:101800000101A0A00000E0E002024040FFFFFFFF56
:10181000FFFFBFBFFFFF7F7FFFFFFFFFFFFFBFBFD8
:10182000FFFF7F7FFFFFFFFFFFFFBFBFB6B6ADAD7E
:1018300008086262A1A1D0D00202C0C00000A0A02E
:101840000101A0A00000E0E002028080FFFFDFDFD6
:10185000FFFF7F7FFFFFFFFFFFFFBFBFFFFF7F7F18
:10186000FFFFFFFFFFFFBFBFFFFF7F7F6B6BA7A7E0
:101870009494E8E8010142420000D0D00101C0C0C8
:101880000000A0A00202A0A00101E0E0FFFFBFBF96
:10189000FFFFFFFFFFFFBFBFFFFFFFFFFFFFBFBF58
:1018A000FFFFFFFFFFFFBFBFFFFFFFFFDADA5A5A5C
:1018B0002222D2D28484A0A00000E0E002024040B4
:1018C0000000D0D00000A0A00202C0C0EFEF7F7FD8
:1018D000FFFFFFFFFFFF5F5FFFFFFFFFFFFF7F7F58
:1018E000FFFF7F7FFFFF7F7FFFFF7F7FDBDB5A5A9A
:1018F00024240505010150500000000001010000F2
:1019000001010000010100000000000000000000D3
:10191000010203040506070801020304050607087F
:10192000006CDC020204060804080C1008101820E1
:1019300010203040204060800102030405060708A3
:101940000102030405060708BC0000200000000097
:101950000000000000000000000000000000000087
:101960000000000000000000000000000000000077
:101970000000000000000000000000000000000067
:101980000000000000000000000000000000000057
:101990000000000000000000000000000000000047
:1019A0000000000000000000000000000000000037
:0819B0003C00002000000000D3
:00000001FF
