:100000006F00D0050000000002060000040600009A
:1000100000000000000000000000000000000000E0
:1000200000000000000000000000000000000000D0
:100030005A080000000000005A08000000000000FC
:100040005A0800005A0800005A0800005A08000028
:100050005A0800005A0800005A0800005A08000018
:100060005A0800005A0800005A0800005A08000008
:100070005A0800005A0800005A0800005A080000F8
:100080005A0800005A0800005A0800005A080000E8
:100090005A0800005A0800005A080000000000003A
:1000A000511126C022C206C4828282441244A24058
:1000B000310182802A86014593F6150091C232955E
:1000C00085810606F5F9828000000000634E050276
:1000D00063C305042E86AA857D5515C285466378BF
:1000E000B6006356C00006068606E36CB6FE014500
:1000F00063E4C500918D558D85820582F5FA828075
:100100008682C93F2E8582823305A04063D70500D1
:10011000B305B040C1B7B305B0408682653F330533
:10012000A0408282868263C70500634905005D376F
:100130002E858282B305B040E35B05FE3305A04007
:10014000513F3305B04082820000EFF27FF511117C
:1001500085454545EF009023854537052000EF0094
:10016000D02499477C80F1473EC48A858D47371556
:1001700001403EC223110100EF004076E167375491
:1001800000409387076A1307004002C802CA02CCE6
:100190003EC66C00916713050440FC81F883FC8423
:1001A000EF00807B854513050440EF0010097101C5
:1001B000EDBDEFF2FFEEB75700402A84AE841387FF
:1001C00007403A85B7050200EF00B00EB757004070
:1001D000138707407DF585453A85EF009007B707FF
:1001E0000300850737570040BE8513050740EF0021
:1001F000F00AB707030037570040850765D50C2084
:10020000014613050740860593F5E50F37040700FF
:10021000EF00B00713042408B757004013850740C8
:10022000A285EF00B007B75700407DD58145138503
:10023000074037040700EF00100513044408B757C0
:10024000004013850740A285EF005005B7570040D6
:100250007DD5A6851385074037040700EF00B0025F
:1002600013044408B7540040A28513850440EF00EE
:10027000F0026DD9854513850440EF00207F35B528
:1002800093178501E18763D3070001A0B94763E3B2
:10029000B70001A0EFF2DFE04111AA84130500408E
:1002A0002E84EF1060102AC29305E00A0A8544806C
:1002B000C08001379305500D0A85E53D9305000880
:1002C0000A85C53D9305800A0A85E5359305F4FF47
:1002D00093F5F50F0A85F13D9305300D0A85D13D63
:1002E000930500040A85F135930500040A85D1358C
:1002F000930500020A85753D81450A855D3D93059C
:10030000D0080A857D35D1450A8565359305A00D50
:100310000A8545359307000281456303F400C14512
:100320000A85413D0A859305100861350A85814596
:1003300049350A859305900DAD3D0A85C545953D26
:100340000A859305B00DB5350A8581459D350A8529
:100350009305400AB93D0A859305E002993D0A8557
:100360009305F00AB9350245924541013DBBEFF2D4
:100370003FD3B75700402A84AE84138707403A859D
:10038000B7050200EF00E072B7570040138707403F
:100390007DF585453A85EF00C06BB70703008507FB
:1003A00037570040BE8513050740EF00206FB707A1
:1003B000030037570040850765D50C20014613051B
:1003C0000740860593F5E50F37040700EF00E06B63
:1003D00013042408B757004013850740A285EF0097
:1003E000E06BB75700407DD59305000413850740A7
:1003F00037040700492D13044408B75700401385FC
:100400000740A285EF008069B75700407DD5A685DB
:100410001385074037040700BD2513044408B7546B
:100420000040A28513850440952D75D98545138517
:1004300004402D2D9DB9935736009E07BE955C4113
:100440001377760005463316E600BE95620683876D
:100450000500618681C65D8E90A182801346F6FFFD
:100460007D8EDDBFB335B00001468147B305B04096
:100470001303000818310D8363E3E700828081468F
:100480005841329736970CA38506E39B66FE850795
:1004900093F7F70F13060608F1BFEFF27FC0AE84A3
:1004A000930510082A843133A68522851933F5BEB9
:1004B000EFF21FBF51112A84814601461C308D8303
:1004C0006364F6003101D5B681449305200222858C
:1004D00036C432C0F93902462285B28532C2D139DA
:1004E0008D452285F931930510022285D93193F586
:1004F000F40F22857D399305F00722855D39584038
:10050000A2462285269736970C2336C0850485356A
:100510001307000882461246E399E4FA9304160092
:1005200013F6F40F9386060851BFEFF27FB721113F
:100530002AC0AE82B283B684014383C71200636DC2
:10054000F30461019DB61E8516CA1AC81EC63AC4B8
:10055000953692472247B30594003E9554210245B3
:100560003A86B3D68640858A93F5F50FE93522475A
:10057000B2434243D2429307140013F4F70F83C6E9
:10058000220083C51200E360D4FC05030507137342
:10059000F30F1377F70F55B7B387620001443EC2DC
:1005A000F9BF03C305009307000863F2670401A0C5
:1005B000182032C86353E6022C203E8516C63EC47E
:1005C000D53C924742462687B386A700024593F65C
:1005D000F60FA285993FB242A247850793F7F70F1E
:1005E0003387F2000306070061F651017DBCEFF28C
:1005F0003FAB3111BA8436C2B2822E842AC0814701
:10060000C5B701A001A0EFF2BFA961110545D12135
:10061000F92A6D25716513050520EF000071371566
:1006200000001305454CEF001056053693050002F7
:100630001305C003B1312AC02EC20A8581451D357C
:1006400001442286854685450A85F53305041374E1
:10065000F40F93070002E316F4FE81460146854538
:100660000A85D13B9305400B0A85053D0A858935EE
:10067000056685650A85054785461306864B93857D
:10068000C54C05370A852D350144A2850A853135CB
:100690001545B92D05041374F40F9307F00FE316F5
:1006A000F4FE1304E00FA2850A85C53B7D141545B1
:1006B0001374F40F352D65F8C1BFEFF27F9E371428
:1006C00002401C403707FFF8611193E717001CC078
:1006D0005C404145F98F5CC01C403707F7FE7D1731
:1006E000F98F1CC01C403707FCFF7D17F98F1CC019
:1006F0005C4041777D17F98F5CC0B7079F001CC431
:10070000E12E1C4C3706020093E707021CCCB717FA
:10071000014003A70740938607401377F7F023A013
:10072000E74003A707401367070823A0E74089476E
:100730009CCA02C002C21C4C37070140A16693E765
:1007400017001CCC5C43D58F5CC31C404167B716B7
:100750000240D98F1CC009679C42F18F3EC282477C
:1007600085073EC0924781E78247E397E7FEB717C8
:1007700002409C431397E7006359070685473EC232
:10078000124785476310F706B72702409843C176A2
:10079000FD16719B98C398431367170098C3B7174A
:1007A0000240D843D8C3D843758FD8C3D843C16655
:1007B000558FD8C39843B7060001558F98C3984307
:1007C00093166700E3DD06FED843B7160240719B1F
:1007D000D8C3D84313672700D8C32147DC42B18B65
:1007E000E39EE7FE21016FF05F8C02C251BFEFF282
:1007F0003F8B371702405C43370400209146B18B92
:10080000130404016385D700A1466382D704B73778
:100810006E01938707601CC0B7160240DC42084097
:10082000918313F7F700B707002093870700BA9763
:100830008C23DC4293F5F50F93F707083357B50087
:1008400081E7EFF03F892A8718C06FF01F865C436D
:10085000B777DC02938707C07DBF01A09701002016
:1008600093814104138101F6171500001305050754
:1008700097F5FF1F938505791386818063FAC5007C
:100880008322050023A0550011059105E3EAC5FE6A
:10089000138581809385C1816377B500232005008E
:1008A0001105E36DB5FEB7220000938202887390B4
:1008B00002308D427390428097F2FFFF93828274E0
:1008C00093E2320073905230EFF03FDF9702000066
:1008D0009382A2D37390123473002030944593F71F
:1008E000060193F2F60081C7DC41B3E2F20083D344
:1008F000050093F7F30FA5C303230500611122C27E
:1009000026C08147130480029304800405473316F0
:10091000F70033F7C3006312E602939527003D47C3
:100920003317B7001347F7FF33736700B395B2006F
:1009300033E36500639D860050C985072147E3972F
:10094000E7FC124423206500824421018280E39663
:1009500096FE10C9DDB78280EFF28FF411114621A7
:100960002A8428002EC05122C246C204C18093F4BA
:1009700004FCB7450F00938505243685C20436C2B2
:10098000C180EFF02FF5458D420541814AA01E2020
:100990009246C207C183F99BC207C1831EA082474A
:1009A0009043E1679387076A9315160063E6C704CF
:1009B0003685EFF02FF2AA87420541819146637395
:1009C000D50091471395070141814AAC1E2002478B
:1009D00093E717001EA01E2056233227C207C183AB
:1009E000D18E93F757BFD58F1EA016275E27D58FC0
:1009F0001EA471016FF06FEB8247EA23B167FD1708
:100A00006310F502B2953685EFF0CFEC42054181D7
:100A10009317450199E313651500A1675D8D75B7BF
:100A2000B387C5008E07B385C7003685EFF08FEA20
:100A30004205418191675D8DE1BF1E2189C593E724
:100A400017001EA18280C207C183F99BC207C18320
:100A5000CDBF1E2189C593E707101EA18280C20762
:100A6000C18393F7F7EFC207C183C5BF1E2189C5B4
:100A700093E707201EA18280C207C18393F7F7DFA7
:100A8000C207C183C5BF0EA9828093F7E50F19C2C3
:100A900093E71500C207C1831EA982805E290A2D33
:100AA00042055D8D6D8D220521810D8D133515005B
:100AB00082805E215A29C2076D8FC18309CB13D56D
:100AC00005017D8D137505703335A00082800145C9
:100AD000828023A8A1808280371702401C430E0524
:100AE00093F777F05D8D08C38280EFF26FDB3717E5
:100AF00002405C4391462A84B18B6385D700A146AE
:100B00006380D708B7376E01938707601CC0B7169C
:100B10000240DC42918313F7F700B7070020938768
:100B20008702BA978C23DC42184093F5F50F93F7B0
:100B300007083355B70081E73A85EFF0AFD948C0D1
:100B400008C448C4B7170240DC438D46AD83FD8B13
:100B500013D737008A07F18BD98F13F6370113F7B4
:100B6000370063F4C600138747FFB7070020938759
:100B70004701BA978C23EFF0EFD508C86FF0EFD29A
:100B80005C43B777DC02938707C049B799C537172D
:100B900002401C4F5D8D08CF8280B7170240984FEE
:100BA0001345F5FF798D88CF828099C537170240AC
:100BB0005C4F5D8D48CF8280B7170240D84F1345F8
:100BC000F5FF798DC8CF8280EFF28FCD1629F577AA
:100BD000FD17F58FF621DA252111D58F1EA956258F
:100BE000FD779387379FF58FD6212A842EC0D58F26
:100BF0009625D58FB625D58F5EA55E29C207C18300
:100C000093F7F7CF5D8F5AA94800C535B747014024
:100C10009387078082456312F406C2475A241395CE
:100C200017003E9542070E0541873E958C4163585B
:100C300007048605EFF00FCA930540062AC0EFF0BF
:100C40006FC9824793144500930540063E85EFF037
:100C50002FCB5E24C207C18763D507020E0593051B
:100C6000400613052503EFF0EFC61D89C98CC204A9
:100C7000C18006A461016FF04FC3B24745B78A0532
:100C800055BF12059305400613052503EFF08FC4E9
:100C90003D89E9BF91C55E250967D98F5EA5828030
:100CA0005A25F977FD17F98FD5BF93F5F51F4EA19A
:100CB00082800A216D8D3335A0008280EFF24FBE15
:100CC000B707002003A50701B7157A009385052013
:100CD000EFF04FC01375F50F238BA18093175500CC
:100CE000898F8A073E950E05239AA1806FF0EFBB8E
:100CF000EFF20FBB37F400E05C40AA85F99B5CC0C3
:100D000003D54181EFF00FBB08C8232404001C4029
:100D100093E717001CC0B7F700E0D843058B75DFD9
:100D20009843799B98C36FF04FB8EFF26FB72A845E
:100D300011651111854513050502893D93070002D0
:100D40007C80371501408D473EC28A85E1471305F7
:100D500005403EC4613622C637440140B70708004B
:100D60006C00130504803ECA02C8231C0100A93D83
:100D7000854513050480393F71016FF00FB3EFF221
:100D80002FB27111AE840144635DC402B7470140C4
:100D9000138707803A859305000432C0193FB7478F
:100DA000014013870780024675D533878400830589
:100DB0000700138507800504C205C181FD35024681
:100DC000E1B7328511016FF04FAE370700201307EE
:100DD00087031C439386C1813E956369D500938642
:100DE00001E663E5A60008C33E858280FD57EDBF9E
:100DF000411106C62EC00DCD1841AA8705C3584122
:100E00007D5511CB8546631BD7009847230007000B
:100E100023A207000545B2404101828098478246DF
:100E200014A39847050798C7D8437D17D8C3DDB7E3
:100E300005468A85A937F9BF011122CC2EC206CEFC
:100E400026CA2A848147930500026345060292451B
:100E5000BE95838505008DE563D8C70263D4E7029C
:100E6000198E1305000293F526002AC089C501E7F3
:100E7000930500032EC0858A814495EAB2840DA0B3
:100E80008507F1B71D8EF1BF0146E1BF824522857E
:100E90003AC832C63EC4A93FA24732464247FD1473
:100EA000E34690FEB284635306008144058E63C717
:100EB000E702A68792463387974036978305070057
:100EC00095EDB28463449004635306000146F240FA
:100ED0006244D2443305F600056182801D8FBA87D3
:100EE00093050003228532C83EC63AC41137B24783
:100EF00022474246FD17EDF7BA9465BF228532C6F8
:100F00003EC4FD35A247324685076DB7824522852E
:100F100032C43EC2F13DFD142246924765B7397195
:100F200006DE22DC26DA3EC232833A8689ED92461C
:100F30009307000301476C08FC86FD3DF2506254A4
:100F4000D25421618280AA843684AE8791CA29470F
:100F500001446317E30063D50500B307B0400544BF
:100F60008646A309010213073103938666FC36C443
:100F70009A853E8532CA3AC81AC63EC0EFF04F98ED
:100F8000A546824732434247524663D4A600A24652
:100F90003695130505039306F7FFA30FA7FE9A8561
:100FA0003E8532CC3ACA1AC83EC636C0EFF08F92A0
:100FB000B24742435247624663F9670401CC29CAEB
:100FC0009247898BB1C79305D002268532C40D356F
:100FD00022467D169247918B95C3064793071006CC
:100FE00032C4930500032685631EF702113593056D
:100FF00080072685F53B2246090479161647924656
:1010000082452685153D229515BFAA8702478DB7D3
:1010100082469307D0020144A38FF6FE9307E7FFB1
:101020003EC04DBFF13393058005E1B70145828095
:1010300001458280130181FD22D026CE06D22AC42A
:10104000AE82328402C681448385020089EDA247C4
:1010500081C781453E85693B925002542685F24402
:10106000130181028280930750026388F5002245B4
:1010700016C88504B53BC24239A88387120013877E
:101080001200639CB7002245930550023AC88D3385
:1010900042478504BA82850245BFD5DB9306B0027C
:1010A0006389D70463C8F600930630026386D704C9
:1010B000814705A09306D002638AD70093060003F8
:1010C000E398D7FE13872200894721A013872200C7
:1010D0008547830607001306B0026383C604634195
:1010E000D60213063002638BC602BA820145A546BA
:1010F00081A0138722006DBF138722009147D1BFC3
:101100001306D0026389C60013060003E39FC6FCE2
:1011100093E7270031A005078547C1BF93E7470044
:101120000507E1B713162500329506053A958502A5
:1011300003860200130706FD9375F70FE3F4B6FE6E
:101140001307E0029946631EE60085028146A54525
:1011500003860200130606FD1377F60F63F5E5021A
:1011600036C6038702001306A006630DC70A634351
:10117000E6021306C0046307C70A13068006630C61
:10118000C70881452DA813972600BA968606B29601
:1011900085027DBF130640076306C7081306A00734
:1011A0006302C7081306C0068145631AC700038699
:1011B00012008D456314E600850291458502038681
:1011C0000200930300061307100663C4C30013074D
:1011D00010049303700663C4C3069303500663535D
:1011E00076189303700463C1C30493055004635BD2
:1011F000B61613073004E310E6EA184093034400E0
:1012000016CA230CE1001EC8A30C01000147BE86CC
:101210002A862C0849A8038612008145E311E6FAC4
:10122000890271BF8502B1BF93063006E307D6FC81
:1012300063CEC606930680056303D602A9BD930656
:1012400030076304D60463CBC6029306F00663023C
:10125000D60E9306000793E74700E31ED6E29146B9
:10126000639FD50A930384000C40504016CA3AC2CB
:101270003EC01EC8AA870147C146B9A093065007C1
:101280006308D6069306800745BF1840B7260000BE
:10129000930344009385068D11C3BA85324716CA5D
:1012A0001EC8BE862A862245413E0DA09146639403
:1012B000D502930384000C40504016CA3AC23EC087
:1012C0001EC8AA870547A94622458D33C243AA9462
:1012D0001E84D242C9B3B2460C4016C836C23AC0C8
:1012E00011042A878546294622451539AA9461B3F7
:1012F0009146639DD500930384000C40504016CA6C
:101300003AC23EC01EC8AA87014775BFB2460C400C
:1013100016C836C23AC011042A878146E9B7B246D8
:1013200016C80C40414636C23AC011042A8781468D
:1013300065BF9146639ED500930384000C405040E6
:1013400016CA3AC23EC01EC8AA870147A146ADBF11
:10135000B2460C4016C836C23AC011042A878146EC
:10136000214659B70C401306840040403AC22A87F0
:10137000224532C83EC02286B687A94616CA4D39D4
:10138000AA944244B9B71301C1FD2EC832CAAA8536
:101390001008014506C636CC3ACE3ED032C0593987
:1013A000B24013014102828097F7FF1F938787CFD6
:1013B000AA85884309A0411126C293843500F1987B
:1013C00006C622C4A104B14763F5F404B14463E442
:1013D000B4042AC0C5201387818014438247368411
:1013E00039E01387C180184301EB3E8581453EC03B
:1013F000692823A6A18082473E85A6853EC071202C
:101400007D5782476314E506314798C33E856520C2
:1014100029A0E3DE04FAB1471CC10145B2402244D1
:101420009244410182801840058F634E07022D4689
:101430006376E60018C03A9404C031A05840639225
:10144000860223A4E1803E85BD201305B400130766
:1014500044006199B307E540F1D33E94098F18C069
:1014600075BFD8C2CDB7A28640409DBF13043500DA
:101470007198E30385FCB305A4403E853EC031204E
:101480007D578247E31AE5FA41B7511122C22A84F7
:101490002E8523AC018006C4EFF03F93FD57631700
:1014A000F500938781819C4391C31CC0A2401244E4
:1014B00031018280828082802B2D202130312723B0
:1014C0002F2500007374617274000000800806FF0D
:1014D000FFFFFFFFFFFFFFFFFFFFFFFFFFFFFFFF1C
:1014E000FFFFFFFFFFFFFFFFFFFFFFFFFFFFFFFF0C
:1014F000FFFFFFFFFFFFFFFFFFFFFFFFFFFFFFFFFC
:10150000FFFFFFFFFFFFFFFFFFFFFFFFFFFFFFFFEB
:10151000FFFFFFFFFFFFFFFFFFFFFFFFFFFFFFFFDB
:10152000FFFFFFFFFFFFFFFFFFFFFFFFFFFFFFFFCB
:10153000FFFFFFFFFFFFFFFFFFFFFFFFFFFFFFFFBB
:10154000FFFFFFFFFFFFFFFFFFFFFFFFFFFFFFFFAB
:10155000FFFFFFFFFFFFFFFFFFFFFFFFFFFFFFFF9B
:10156000FFFFFFFFFFFFFFFFFFFFFFFFFFFFFFFF8B
:10157000FF55FFFFFFFFFFFFFF55FFFFFFFFFFFFCF
:10158000FF55FFFFFFFFFFFFFF55FFFFFFFFFFFFBF
:10159000FF55FFFFFFFFFFFFFF55FFFFFFFFFFFFAF
:1015A000FF55FFFFFFFFFFFFFF55FFFFFFFFFFFF9F
:1015B000FF55FFFFFFFFFFFFFF55FFFFFFFFFFFF8F
:1015C000FF55FFFFFFFFFFFFFF55FFFFFFFFFFFF7F
:1015D0000000000000000000181818181800181863
:1015E0000C0C0C0000000000000A0A1F0A1F0A0A67
:1015F000FF55FFFFFFFFFFFF000A08040404020A73
:10160000FF55FFFFFFFFFFFF080808000000000074
:10161000FF55FFFFFFFFFFFFFF55FFFFFFFFFFFF2E
:10162000FF55FFFFFFFFFFFF000008083E0808000E
:101630000808080000000000000000001E00000074
:101640000000000000000008000808040404020272
:10165000000C121A1612120C00080C0808080808D0
:10166000FF55FFFFFFFFFFFFFF55FFFFFFFFFFFFDE
:10167000FF55FFFFFFFFFFFFFF55FFFFFFFFFFFFCE
:10168000FF55FFFFFFFFFFFFFF55FFFFFFFFFFFFBE
:10169000FF55FFFFFFFFFFFFFF55FFFFFFFFFFFFAE
:1016A000FF55FFFFFFFFFFFFFF55FFFFFFFFFFFF9E
:1016B000FF55FFFFFFFFFFFFFF55FFFFFFFFFFFF8E
:1016C000FF55FFFFFFFFFFFFFF55FFFFFFFFFFFF7E
:1016D000FF55FFFFFFFFFFFFFF55FFFFFFFFFFFF6E
:1016E000FF55FFFFFFFFFFFFFF55FFFFFFFFFFFF5E
:1016F000FF55FFFFFFFFFFFFFF55FFFFFFFFFFFF4E
:10170000FF55FFFFFFFFFFFFFF55FFFFFFFFFFFF3D
:10171000FF55FFFFFFFFFFFFFF55FFFFFFFFFFFF2D
:10172000FF55FFFFFFFFFFFFFF55FFFFFFFFFFFF1D
:10173000FF55FFFFFFFFFFFFFF55FFFFFFFFFFFF0D
:10174000FF55FFFFFFFFFFFF000C12121212120CD9
:10175000FF55FFFFFFFFFFFFFF55FFFFFFFFFFFFED
:10176000FF55FFFFFFFFFFFFFF55FFFFFFFFFFFFDD
:10177000FF55FFFFFFFFFFFFFF55FFFFFFFFFFFFCD
:10178000FF55FFFFFFFFFFFFFF55FFFFFFFFFFFFBD
:10179000FF55FFFFFFFFFFFFFF55FFFFFFFFFFFFAD
:1017A000FF55FFFFFFFFFFFFFF55FFFFFFFFFFFF9D
:1017B000FF55FFFFFFFFFFFFFF55FFFFFFFFFFFF8D
:1017C000FF55FFFFFFFFFFFFFF55FFFFFFFFFFFF7D
:1017D000FF55FFFFFFFFFFFFFF55FFFFFFFFFFFF6D
:1017E000FF55FFFFFFFFFFFFFF55FFFFFFFFFFFF5D
:1017F000FF55FFFFFFFFFFFFFF55FFFFFFFFFFFF4D
:10180000FF55FFFFFFFFFFFFFF55FFFFFFFFFFFF3C
:10181000FF55FFFFFFFFFFFFFF55FFFFFFFFFFFF2C
:10182000FF55FFFFFFFFFFFFFF55FFFFFFFFFFFF1C
:10183000FF55FFFFFFFFFFFFFF55FFFFFFFFFFFF0C
:10184000FF55FFFFFFFFFFFFFF55FFFFFFFFFFFFFC
:10185000FF55FFFFFFFFFFFFFF55FFFFFFFFFFFFEC
:10186000FF55FFFFFFFFFFFFFF55FFFFFFFFFFFFDC
:10187000FF55FFFFFFFFFFFFFF55FFFFFFFFFFFFCC
:10188000FF55FFFFFFFFFFFFFF55FFFFFFFFFFFFBC
:10189000FF55FFFFFFFFFFFFFF55FFFFFFFFFFFFAC
:1018A000FF55FFFFFFFFFFFFFF55FFFFFFFFFFFF9C
:1018B000FF55FFFFFFFFFFFFFF55FFFFFFFFFFFF8C
:1018C000FF55FFFFFFFFFFFF0000000000000000CA
:0818D000286E756C6C29000004
:1018D80001020304050607080102030405060708B8
:1018E800006CDC020204060804080C10081018201A
:1018F80010203040204060800102030405060708DC
:101908000102030405060708BC00002000000000CF
:1019180000000000000000000000000000000000BF
:1019280000000000000000000000000000000000AF
:10193800000000000000000000000000000000009F
:10194800000000000000000000000000000000008F
:10195800000000000000000000000000000000007F
:10196800000000000000000000000000000000006F
:081978003C000020000000000B
:00000001FF
