:100000006F00607400000000240500002605000059
:1000100000000000000000000000000000000000E0
:1000200000000000000000000000000000000000D0
:10003000440700000000000044070000000000002A
:100040004407000044070000440700004407000084
:100050004407000044070000440700004407000074
:100060004407000044070000440700004407000064
:100070004407000044070000440700004407000054
:100080004407000044070000440700004407000044
:10009000440700004407000044070000000000007F
:1000A000511126C022C206C4828282441244A24058
:1000B000310182802A86014593F6150091C232955E
:1000C00085810606F5F9828000000000634E050276
:1000D00063C305042E86AA857D5515C285466378BF
:1000E000B6006356C00006068606E36CB6FE014500
:1000F00063E4C500918D558D85820582F5FA828075
:100100008682C93F2E8582823305A04063D70500D1
:10011000B305B040C1B7B305B0408682653F330533
:10012000A0408282868263C70500634905005D376F
:100130002E858282B305B040E35B05FE3305A04007
:10014000513F3305B04082820000EFF27FF511117C
:1001500085454545EF003012854537052000EF0005
:10016000701399477C80F1473EC48A858D473715C7
:1001700001403EC223110100EF00E064E167375403
:1001800000409387076A1307004002C802CA02CCE6
:100190003EC66C00916713050440FC81F883FC8423
:1001A000EF00206A854513050440EF00A077710138
:1001B000EDBDEFF2FFEEB75700402A84AE841387FF
:1001C00007403A85B7050200EF00407DB757004071
:1001D000138707407DF585453A85EF002076B70700
:1001E0000300850737570040BE8513050740EF0021
:1001F0008079B707030037570040850765D50C2085
:10020000014613050740860593F5E50F37040700FF
:10021000EF00407613042408B757004013850740C9
:10022000A285EF004076B75700407DD58145138504
:10023000074037040700EF00A07313044408B757C2
:10024000004013850740A285EF00E073B7570040D8
:100250007DD5A6851385074037040700EF00407160
:1002600013044408B7540040A28513850440EF00EE
:1002700080716DD9854513850440EF00C06D35B59B
:1002800093178501E18763D3070001A0B94763E3B2
:10029000B70001A0EFF2DFE04111AA84130500408E
:1002A0002E84EF00500A2AC29305E00A0A85448092
:1002B000C08001379305500D0A85E53D9305000880
:1002C0000A85C53D9305800A0A85E5359305F4FF47
:1002D00093F5F50F0A85F13D9305300D0A85D13D63
:1002E000930500040A85F135930500040A85D1358C
:1002F000930500020A85753D81450A855D3D93059C
:10030000D0080A857D35D1450A8565359305A00D50
:100310000A8545359307000281456303F400C14512
:100320000A85413D0A859305100861350A85814596
:1003300049350A859305900DAD3D0A85C545953D26
:100340000A859305B00DB5350A8581459D350A8529
:100350009305400AB93D0A859305E002993D0A8557
:100360009305F00AB9350245924541013DBBEFF2D4
:100370003FD3B75700402A84AE84138707403A859D
:10038000B7050200212DB75700401387074065F9D4
:1003900085453A856523B707030085073757004031
:1003A000BE8513050740C523B70703003757004034
:1003B00085076DD50C20014613050740860593F58A
:1003C000E50F370407007D2313042408B7570040C6
:1003D00013850740A285452BB757004065D9930583
:1003E0000004138507403704070059231304440809
:1003F000B757004013850740A2857123B7570040C7
:1004000065D9A68513850740370407009523130493
:100410004408B7540040A28513850440AD2375D924
:10042000854513850440052B49B1935736009E0737
:10043000BE955C41BE959377760005463316F6006F
:100440009C215D8E90A18280B335B000014681472A
:10045000B305B0401303000818310D8363E3E700D0
:10046000828081465841329736970CA38506E39BDC
:1004700066FE850793F7F70F13060608F1BFEFF244
:100480003FC2AE84930510082A842533A6852285B1
:100490000D3321B9EFF2DFC0AE84930520022A8428
:1004A000093BA685228531338D4522851933F5BE5A
:1004B000EFF21FBFAE84930510022A84DD39A685B2
:1004C0002285C5399305F0072285E531F9BEEFF2A3
:1004D0003FBD6111AA84814601469C308D836364CF
:1004E000F6002101D9B60144B285268532C236C054
:1004F00055379375F40F2685653FD840824626858B
:10050000229736970C2305049D3513070008824671
:100510001246E31BE4FC130416001376F40F9386D3
:10052000060865BF01A001A0EFF29FB76111054564
:1005300071215D22BD2B1139930500041305C00301
:1005400081332AC02EC20A858145FD3D01442286A1
:10055000854681450A85D13D05041374F40F930740
:100560000004E316F4FE0A859305400B093F0A8553
:10057000B93F0144A2850A8519371545AD23050405
:100580001374F40F9307F00FE316F4FE1304E00F57
:10059000A2850A85ED357D1415451374F40FA1234A
:1005A00065F8C1BFEFF2DFAF371402401C403707D8
:1005B000FFF8611193E717001CC05C404145F98FBB
:1005C0005CC01C403707F7FE7D17F98F1CC01C402C
:1005D0003707FCFF7D17F98F1CC05C4041777D1702
:1005E000F98F5CC0B7079F001CC4E12E1C4C370676
:1005F000020093E707021CCCB717014003A707408E
:10060000938607401377F7F023A0E74003A707403E
:100610001367070823A0E74089479CCA02C002C2AB
:100620001C4C37070140A16693E717001CCC5C43C4
:10063000D58F5CC31C404167B7160240D98F1CC0E0
:1006400009679C42F18F3EC2824785073EC09247B0
:1006500081E78247E397E7FEB71702409C43139771
:10066000E7006359070685473EC212478547631076
:10067000F706B72702409843C176FD16719B98C3D1
:1006800098431367170098C3B7170240D843D8C3DD
:10069000D843758FD8C3D843C166558FD8C3984304
:1006A000B7060001558F98C3984393166700E3DDA2
:1006B00006FED843B7160240719BD8C3D8431367D0
:1006C0002700D8C32147DC42B18BE39EE7FE21011E
:1006D0006FF0BF9D02C251BFEFF29F9C37170240DF
:1006E0005C43370400209146B18B130404016385F9
:1006F000D700A1466382D704B7376E01938707609E
:100700001CC0B7160240DC420840918313F7F70083
:10071000B707002093870700BA978C23DC4293F534
:10072000F50F93F707083357B50081E7EFF09F9A6D
:100730002A8718C06FF07F975C43B777DC029387F6
:1007400007C07DBF01A0970100209381A1151381EF
:1007500001F6170500001305255097050020938525
:10076000658A1386818063FAC5008322050023A071
:10077000550011059105E3EAC5FE13858180938537
:10078000C1816377B500232005001105E36DB5FE37
:10079000B722000093820288739002308D427390DA
:1007A0004280970200009382E28593E232007390C8
:1007B0005230EFF03FDF97020000938222D7739010
:1007C000123473002030944593F7060193F2F6003B
:1007D00081C7DC41B3E2F20083D3050093F7F30F46
:1007E000A5C303230500611122C226C0814713045B
:1007F00080029304800405473316F70033F7C300E3
:100800006312E602939527003D473317B70013475D
:10081000F7FF33736700B395B20033E36500639D60
:10082000860050C985072147E397E7FC124423203F
:100830006500824421018280E39696FE10C9DDB7EF
:100840008280EFF2FF85111146212A8428002EC0F4
:100850005122C246C204C18093F404FCB7450F0084
:10086000938505243685C20436C2C180EFF09F8689
:10087000458D420541814AA01E209246C207C18390
:10088000F99BC207C1831EA082479043E16793870B
:10089000076A9315160063E6C7043685EFF09F8359
:1008A000AA874205418191466373D500914713950C
:1008B000070141814AAC1E20024793E717001EA0A2
:1008C0001E2056233227C207C183D18E93F757BF0C
:1008D000D58F1EA016275E27D58F1EA471016FF03D
:1008E000CFFC8247EA23B167FD176310F502B2958A
:1008F0003685EFF02FFE420541819317450199E3BC
:1009000013651500A1675D8D75B7B387C5008E07A8
:10091000B385C7003685EFF0EFFB42054181916753
:100920005D8DE1BF1E2189C593E717001EA182805E
:10093000C207C183F99BC207C183CDBF1E2189C5F0
:1009400093E707101EA18280C207C18393F7F7EFD8
:10095000C207C183C5BF1E2189C593E707201EA119
:100960008280C207C18393F7F7DFC207C183C5BF87
:100970000EA9828093F7E50F19C293E71500C2070D
:10098000C1831EA982805E290A2D42055D8D6D8D71
:10099000220521810D8D1335150082805E215A2993
:1009A000C2076D8FC18309CB13D505017D8D1375EA
:1009B00005703335A00082800145828023A8A18084
:1009C0008280371702401C430E0593F777F05D8D48
:1009D00008C38280EFF2CFEC371702405C439146A8
:1009E0002A84B18B6385D700A1466380D708B737C7
:1009F0006E01938707601CC0B7160240DC429183EA
:100A000013F7F700B707002093878702BA978C2364
:100A1000DC42184093F5F50F93F707083355B700FC
:100A200081E73A85EFF00FEB48C008C448C4B71718
:100A30000240DC438D46AD83FD8B13D737008A0718
:100A4000F18BD98F13F6370113F7370063F4C60023
:100A5000138747FFB707002093874701BA978C2376
:100A6000EFF04FE708C86FF04FE45C43B777DC0264
:100A7000938707C049B799C5371702401C4F5D8D52
:100A800008CF8280B7170240984F1345F5FF798D44
:100A900088CF828099C5371702405C4F5D8D48CF63
:100AA0008280B7170240D84F1345F5FF798DC8CF24
:100AB0008280EFF2EFDEB707002003A50701B7152C
:100AC0007A0093850520EFF0EFE01375F50F238B87
:100AD000A18093175500898F8A073E950E05239AAA
:100AE000A1806FF08FDCEFF2AFDB37F400E05C4009
:100AF000AA85F99B5CC003D54181EFF0AFDB08C844
:100B0000232404001C4093E717001CC0B7F700E043
:100B1000D843058B75DF9843799B98C36FF0EFD866
:100B200037070020130787031C439386C1813E9536
:100B30006369D500938601E663E5A60008C33E8598
:100B40008280FD57EDBF97F7FF1F9387A755AA85B2
:100B5000884309A0411126C293843500F19806C646
:100B600022C4A104B14763F5F404B14463E4B404BE
:100B70002AC0F9281387818014438247368439E0DC
:100B80001387C180184301EB3E8581453EC069282B
:100B900023A6A18082473E85A6853EC071207D5751
:100BA00082476314E506314798C33E855D2029A03E
:100BB000E3DE04FAB1471CC10145B240224492442D
:100BC000410182801840058F634E07022D466376EF
:100BD000E60018C03A9404C031A0584063928602DF
:100BE00023A4E1803E85B5201305B400130744001B
:100BF0006199B307E540F1D33E94098F18C075BFE2
:100C0000D8C2CDB7A28640409DBF1304350071986D
:100C1000E30385FCB305A4403E853EC031207D57EB
:100C20008247E31AE5FA41B7511122C22A842E8580
:100C300023AC018006C4ED35FD576317F50093879B
:100C400081819C4391C31CC0A24012443101828027
:040C5000828082809C
:100C54000102030405060708010203040506070848
:100C6400006CDC020204060804080C1008101820AA
:100C7400102030402040608001020304050607086C
:100C84000102030405060708BC0000200000000060
:100C94000000000000000000000000000000000050
:100CA4000000000000000000000000000000000040
:100CB4000000000000000000000000000000000030
:100CC4000000000000000000000000000000000020
:100CD4000000000000000000000000000000000010
:100CE4000000000000000000000000000000000000
:080CF4003C000020000000009C
:00000001FF
