:100000006F00B016000000006607000068070000DF
:1000100000000000000000000000000000000000E0
:1000200000000000000000000000000000000000D0
:1000300068090000000000006809000000000000DE
:1000400068090000680900006809000068090000EC
:1000500068090000680900006809000068090000DC
:1000600068090000680900006809000068090000CC
:1000700068090000680900006809000068090000BC
:1000800068090000680900006809000068090000AC
:10009000680900006809000068090000000000000D
:1000A000511126C022C206C4828282441244A24058
:1000B000310182802A86014593F6150091C232955E
:1000C00085810606F5F9828000000000634E050276
:1000D00063C305042E86AA857D5515C285466378BF
:1000E000B6006356C00006068606E36CB6FE014500
:1000F00063E4C500918D558D85820582F5FA828075
:100100008682C93F2E8582823305A04063D70500D1
:10011000B305B040C1B7B305B0408682653F330533
:10012000A0408282868263C70500634905005D376F
:100130002E858282B305B040E35B05FE3305A04007
:10014000513F3305B04082820000EFF27FF511117C
:1001500085454545EF007034854537052000EF00A3
:10016000B03599477C80F1473EC48A858D47371565
:1001700001403EC223110100EF003007B7270600FF
:1001800037540040938707A81307004002C802CAEB
:1001900002CC3EC66C00916713050440FC81F883D5
:1001A000FC84EF00500C854513050440EF00D01986
:1001B0007101E5BDEFF2DFEEB75700402A84AE844F
:1001C000138707403A85B7050200EF00701FB75745
:1001D0000040138707407DF585453A85EF005018AC
:1001E000B7070300850737570040BE851305074052
:1001F000EF00B01BB707030037570040850765D5F0
:100200000C20014613050740860593F5E50F3704DA
:100210000700EF00701813042408B7570040138537
:100220000740A285EF007018B75700407DD5814583
:100230001385074037040700EF00D0151304440866
:10024000B757004013850740A285EF001016B75737
:1002500000407DD5A6851385074037040700EF00D1
:10026000701313044408B7540040A285138504405A
:10027000EF00B0136DD9854513850440EF00F00FF2
:100280002DB593178501E18763D3070001A0B94716
:1002900063E3B70001A0EFF2BFE04111AA841305A8
:1002A00000402E84EF00303C2AC29305E00A0A8504
:1002B0004480C08001379305500D0A85E53D9305C4
:1002C000000F0A85C53D9305800A0A85E53593052B
:1002D000F4FF93F5F50F0A85F13D9305300D0A857E
:1002E000D13D930500040A85F135930500040A8584
:1002F000D135930500020A85753D81450A855D3D2E
:100300009305D0080A857D35D1450A856535930565
:10031000A00D0A8545359307000281456303F4006B
:10032000C1450A85413D0A859305100861350A8556
:10033000814549350A859305900DAD3D0A85C54532
:10034000953D0A859305B00DB5350A8581459D35E6
:100350000A859305400AB93D0A859305E002993D57
:100360000A859305F00AB93502459245410135BB2E
:10037000EFF21FD3B75700402A84AE84138707409B
:100380003A85B7050200EF00B003B7570040138766
:1003900007407DF585453A85EF00807CB70703006F
:1003A000850737570040BE8513050740EF00E07F03
:1003B000B707030037570040850765D50C20014675
:1003C00013050740860593F5E50F37040700EF0096
:1003D000A07C13042408B757004013850740A2856A
:1003E000EF00A07CB75700407DD59305000413852E
:1003F000074037040700EF00E07913044408B757BB
:10040000004013850740A285EF00207AB7570040CF
:100410007DD5A6851385074037040700EF00807758
:1004200013044408B7540040A28513850440EF002C
:10043000C0776DD9854513850440EF000074B5B1D0
:100440001C316379F60293978501E18763C4070243
:10045000935736009E07AE974C41137776000546BA
:100460003316E600BE95620683870500618681C665
:100470005D8E90A182801346F6FF7D8EDDBFB33581
:10048000B00001468147B305B0401303000818319E
:100490000D8363E3E70082808146584132973697A7
:1004A0000CA38506E39B66FE850793F7F70F1306FB
:1004B0000608F1BFEFF2DFBEAE84930510082A8470
:1004C000D539A6852285FD31CDB6EFF27FBD51111C
:1004D0002A84814601461C308D836364F600310115
:1004E000E9B6814493052002228536C432C0D93151
:1004F00002462285B28532C275398D4522855D3925
:100500009305100222857D3193F5F40F22855D312C
:100510009305F007228579395840A246228526970F
:1005200036970C2336C08504A13513070008824690
:100530001246E399E4FA9304160013F6F40F938637
:10054000060851BFEFF2DFB55111930520022A844E
:10055000953181452285B9398D452285A13993058B
:1005600010022285813981452285A9319305F00742
:1005700022858931B7540040938704403E85B705F2
:1005800002003D2DB75700409387074065F913855A
:1005900004408545B7040300E1238504B7570040B4
:1005A00013850740A6851125B757004065D90C2053
:1005B000014613850740860593F5E50FB70407004C
:1005C000E12B93842408B757004013850740A68584
:1005D000E92BB757004065D9930500041385074000
:1005E000B7040700452B9384440837550040A6857F
:1005F000130505405D2B75D90146814718300D83E1
:1006000063EAE70037550040854513050540B523EB
:10061000310161BCB7540040814693840440584086
:1006200026853EC4329736970C2332C236C09D23AE
:10063000A247124682463707070013074708BA85C4
:10064000268536C432C23EC08D23B7070700138704
:10065000470812468247A2467DD185061307000847
:10066000E39FE6FA850793F7F70F1306060879B7B5
:10067000EFF21FA39C211301C1FD80313EC2BC21BA
:100680002AC4AE843285BE853AC836C63EC01D3403
:10069000A2850D3442479302350001433A94937387
:1006A000F40F630F7704B387640001443EC881A050
:1006B000C247135634002245B3865700B29694229F
:1006C000B24713767400B3D6C640B305F4003A8639
:1006D000858A93F5F50F1ED01ACE16CC3ACA8D3303
:1006E00082537243E242524705041374F40F924757
:1006F000E310F4FC824705071377F70F3E9355B7D5
:10070000130141026FF07F9A03C3050093070008AD
:1007100063F1670401A00C203E851AC832C63EC4AE
:10072000EFF05F99924732462687B386A7000245CD
:1007300093F6F60FA2852D3FA2474243850793F714
:10074000F70F3307F3000306070071F651016FF04E
:10075000DF95EFF2FF943111BA8436C232832E84D2
:100760002AC08147F9BF01A001A0EFF27F93611178
:100770000545BD2161228925716513050520BD252B
:10078000EFF0BF9C930500021305C003DD3C2AC0B7
:100790002EC20A858145E5318146014685450A8597
:1007A00045319305400B0A8531330A85393B056491
:1007B00085650A8501478146130644F7938545F808
:1007C000A1370A854133EDB7EFF29F8D3714024010
:1007D0001C403707FFF8611193E717001CC05C400D
:1007E0004145F98F5CC01C403707F7FE7D17F98F34
:1007F0001CC01C403707FCFF7D17F98F1CC05C40F4
:1008000041777D17F98F5CC0B7079F001CC4E12EAC
:100810001C4C3706020093E707021CCCB7170140B7
:1008200003A70740938607401377F7F023A0E7401C
:1008300003A707401367070823A0E74089479CCA1E
:1008400002C002C21C4C37070140A16693E71700A3
:100850001CCC5C43D58F5CC31C404167B71602407B
:10086000D98F1CC009679C42F18F3EC28247850721
:100870003EC0924781E78247E397E7FEB717024001
:100880009C431397E7006359070685473EC212470A
:1008900085476310F706B72702409843C176FD16D7
:1008A000719B98C398431367170098C3B71702400A
:1008B000D843D8C3D843758FD8C3D843C166558FA2
:1008C000D8C39843B7060001558F98C39843931631
:1008D0006700E3DD06FED843B7160240719BD8C31C
:1008E000D84313672700D8C32147DC42B18BE39E6E
:1008F000E7FE21016FF06FFB02C251BFEFF24FFA2A
:10090000371702405C43370400209146B18B130433
:1009100004016385D700A1466382D704B7376E010F
:10092000938707601CC0B7160240DC4208409183E1
:1009300013F7F700B707002093870700BA978C23B7
:10094000DC4293F5F50F93F707083357B50081E7BD
:10095000EFF04FF82A8718C06FF02FF55C43B77798
:10096000DC02938707C07DBF01A09701002093811F
:1009700061F3138101F617150000130525A197F502
:10098000FF1F938525681386818063FAC500832243
:10099000050023A0550011059105E3EAC5FE138566
:1009A00081809385C1816377B500232005001105FF
:1009B000E36DB5FEB7220000938202887390023087
:1009C0008D427390428097F2FFFF9382A26393E27D
:1009D000320073905230EFF03FDF970200009382B5
:1009E00002D97390123473002030944593F70601B6
:1009F00093F2F60081C7DC41B3E2F20083D3050035
:100A000093F7F30FA5C303230500611122C226C08B
:100A10008147130480029304800405473316F700CE
:100A200033F7C3006312E602939527003D4733175F
:100A3000B7001347F7FF33736700B395B20033E392
:100A40006500639D860050C985072147E397E7FC51
:100A5000124423206500824421018280E39696FEA1
:100A600010C9DDB78280EFF2AFE3111146212A846D
:100A700028002EC05122C246C204C18093F404FC57
:100A8000B7450F00938505243685C20436C2C18060
:100A9000EFF04FE4458D420541814AA01E20924669
:100AA000C207C183F99BC207C1831EA0824790433E
:100AB000E1679387076A9315160063E6C7043685D6
:100AC000EFF04FE1AA874205418191466373D5005B
:100AD00091471395070141814AAC1E20024793E7D5
:100AE00017001EA01E2056233227C207C183D18EB5
:100AF00093F757BFD58F1EA016275E27D58F1EA44C
:100B000071016FF08FDA8247EA23B167FD17631036
:100B1000F502B2953685EFF0EFDB42054181931780
:100B2000450199E313651500A1675D8D75B7B3871E
:100B3000C5008E07B385C7003685EFF0AFD94205F3
:100B4000418191675D8DE1BF1E2189C593E7170043
:100B50001EA18280C207C183F99BC207C183CDBF9A
:100B60001E2189C593E707101EA18280C207C18399
:100B700093F7F7EFC207C183C5BF1E2189C593E76D
:100B800007201EA18280C207C18393F7F7DFC20747
:100B9000C183C5BF0EA9828093F7E50F19C293E701
:100BA0001500C207C1831EA982805E290A2D420555
:100BB0005D8D6D8D220521810D8D1335150082808F
:100BC0005E215A29C2076D8FC18309CB13D5050158
:100BD0007D8D137505703335A000828001458280BC
:100BE00023A8A1808280371702401C430E0593F78B
:100BF00077F05D8D08C38280EFF28FCA371702400D
:100C00005C4391462A84B18B6385D700A1466380FB
:100C1000D708B7376E01938707601CC0B71602402C
:100C2000DC42918313F7F700B70700209387870210
:100C3000BA978C23DC42184093F5F50F93F7070819
:100C40003355B70081E73A85EFF0CFC848C008C4F4
:100C500048C4B7170240DC438D46AD83FD8B13D7E4
:100C600037008A07F18BD98F13F6370113F7370056
:100C700063F4C600138747FFB70700209387470137
:100C8000BA978C23EFF00FC508C86FF00FC25C4312
:100C9000B777DC02938707C049B799C53717024079
:100CA0001C4F5D8D08CF8280B7170240984F1345C7
:100CB000F5FF798D88CF828099C5371702405C4F48
:100CC0005D8D48CF8280B7170240D84F1345F5FF9E
:100CD000798DC8CF8280EFF2AFBC1629F577FD176A
:100CE000F58FF621DA252111D58F1EA95625FD771E
:100CF0009387379FF58FD6212A842EC0D58F9625CE
:100D0000D58FB625D58F5EA55E29C207C18393F71F
:100D1000F7CF5D8F5AA94800C535B7470140938783
:100D2000078082456312F406C2475A2413951700C0
:100D30003E9542070E0541873E958C416358070456
:100D40008605EFF02FB9930540062AC0EFF08FB863
:100D5000824793144500930540063E85EFF04FBA55
:100D60005E24C207C18763D507020E0593054006BE
:100D700013052503EFF00FB61D89C98CC204C1808D
:100D800006A461016FF06FB2B24745B78A0555BF3F
:100D900012059305400613052503EFF0AFB33D8917
:100DA000E9BF91C55E250967D98F5EA582805A2566
:100DB000F977FD17F98FD5BFEFF28FAEB707002097
:100DC00003A50701B7157A0093850520EFF08FB0D2
:100DD0001375F50F238BA18093175500898F8A0710
:100DE0003E950E05239AA1806FF02FACEFF24FAB2A
:100DF0002A8411651111854513050502793D930774
:100E000000027C80371501408D473EC28A85E1474C
:100E1000130505403EC4D13E22C637440140B70702
:100E200008006C00130504803ECA02C8231C0100A0
:100E30005D35854513050480AD3771016FF0EFA670
:100E400037070020130787031C439386C1813E9513
:100E50006369D500938601E663E5A60008C33E8575
:100E60008280FD57EDBF97F7FF1F9387A723AA85C1
:100E7000884309A0411126C293843500F19806C623
:100E800022C4A104B14763F5F404B14463E4B4049B
:100E90002AC0F9281387818014438247368439E0B9
:100EA0001387C180184301EB3E8581453EC0692808
:100EB00023A6A18082473E85A6853EC071207D572E
:100EC00082476314E506314798C33E855D2029A01B
:100ED000E3DE04FAB1471CC10145B240224492440A
:100EE000410182801840058F634E07022D466376CC
:100EF000E60018C03A9404C031A0584063928602BC
:100F000023A4E1803E85B5201305B40013074400F7
:100F10006199B307E540F1D33E94098F18C075BFBE
:100F2000D8C2CDB7A28640409DBF1304350071984A
:100F3000E30385FCB305A4403E853EC031207D57C8
:100F40008247E31AE5FA41B7511122C22A842E855D
:100F500023AC018006C4ED35FD576317F500938778
:100F600081819C4391C31CC0A24012443101828004
:100F7000828082804A554C45532045535420474136
:100F8000590000000608013F3B3F313F2F3D3F3FE6
:100F9000353F3D353F2D353F3B2F3D3F3D3F333FB7
:100FA000353F3D2F3F2D353F353F3D3D3F3D353FA3
:100FB0003B3F393F3F3D3F3F2B3F3D2F3D2F353F8F
:100FC0003F2F3D352F3D3F3F3B3B3F3B3F3B3B3F73
:100FD0003F3F2F3F3F2F3B3F3F3D373D3D2F3F3F63
:100FE0003F3D3F3F3D3F213F3F353B2F3D3F2F3F63
:100FF0003F2D3D373D2F3D3F3B2F3D3F2D3F333F65
:10100000353F393F3D3F3D3F333F2D3F3F15233F68
:10101000392F313F353F3F3F3B3F392F3F3F313F36
:10102000393F3B3B3F3B3F3F3F2D3F3D2F3D3B3F0C
:101030002F3D3F373D3B3F3F3F2D3F3D2B3D373F12
:101040002F3D373F3B3F2D3F3F353F3B3F3B3F3FF2
:10105000293F2F3F3B3F293F3F3F3F3F3F3F3F001F
:101060000000000000002A3F3F3F3F3F3F3F3F045A
:101070000000000000002A3F3F3F3F3F3F3F3F004E
:101080000000000000002A00000000000000123FE5
:101090003F3F3F3F3F3F3F000000000000002A3F2E
:1010A0003F3F3F3F3F3F3F000000000000002A3F1E
:1010B0003F3F3F3F3F3F3F000000000000002A3F0E
:1010C0003F3F3F3F3F3F3F000000000000002A3FFE
:1010D0003F3F3F3F3F3F3F200000000000002A3FCE
:1010E0003F3F3F3F3F3F3F200000000000002A3FBE
:1010F0003F3F3F3F3F3F3F200000000000002A3FAE
:101100003F3F3F3F3F3F3F3F3F3F3F3F3F3F3F200E
:101110000000000000002A3F3F3F3F3F3F3F3F208D
:101120000000000000002A3F3F3F3F3F3F3F3F207D
:101130000000000000002A3F3F3F3F3F3F3F3F206D
:101140000000000000002A3F3F3F3F3F3F3F3F205D
:101150000000000000002A3F3F3F3F3F3F3F3F204D
:101160000000000000002A3F3F3F3F3F3F3F3F203D
:101170000000000000002A3F3F3F3F3F3F3F3F004D
:101180000000000000002A200000000000002A3FAC
:101190003B2F392F3F2F3D3F393F2F393F2D353FD3
:1011A000333F3D3F3F3D333F393F2D3F3D2F393F9B
:1011B000393F3F393F3D353F333D3B3F3D3F3F3F6B
:1011C000333F3D2F3F2D3B3F3F2D3F313F2D3F3F95
:1011D0003B3B3F3B3F3B3B3F3F2F3F3F2F3F3B3F57
:1011E0003F3D373D373D3F3F3F3D3F3D3F3F313F37
:1011F0003F353B2F3D3F2D3F3F2D3D372D3F3F3F5F
:10120000333F3D2F3F3D333F392F393F3F3D3F3F38
:10121000333F3D2F3F350B3F392F393B3D2F3D3F6E
:101220002B3F353F3F2F393F393F3B3F3B3F3B3F14
:101230003F2D3F3D2F3D3B3F3D2F3F353F3B3F3F08
:101240002F3D3F2D3B353F3F3F2D373B3F2F3D3F10
:101250003F353F3B3F3B3F3F213F3F373F3F213FF4
:101260003F3F3F3F3F3F3F3F3F3F3F3F3F3F1000FC
:1012700000000000002A3F3F3F3F3F3F3F3F00004C
:1012800000000000001200000000000000143F3FBA
:101290003F3F3F3F3F3F020000000000002A3F3F2A
:1012A0003F3F3F3F3F3F000000000000002A3F3F1C
:1012B0003F3F3F3F3F3F000000000000002A3F3F0C
:1012C0003F3F3F3F3F3F000000000000002A3F3FFC
:1012D0003F3F3F3F3F3F000000000000002A3F3FEC
:1012E0003F3F3F3F3F3F200000000000002A3F3FBC
:1012F0003F3F3F3F3F3F200000000000002A3F3FAC
:101300003F3F3F3F3F3F3F3F3F3F3F3F3F3F10005B
:1013100000000000002A3F3F3F3F3F3F3F3F20008B
:1013200000000000002A3F3F3F3F3F3F3F3F20007B
:1013300000000000002A3F3F3F3F3F3F3F3F20006B
:1013400000000000002A3F3F3F3F3F3F3F3F20005B
:1013500000000000002A3F3F3F3F3F3F3F3F20004B
:1013600000000000002A3F3F3F3F3F3F3F3F20003B
:1013700000000000002A3F3F3F3F3F3F3F3F00004B
:0813800000000000002A00003B
:10138800010203040506070801020304050607080D
:10139800006CDC020204060804080C10081018206F
:1013A8001020304020406080010203040506070831
:1013B8000102030405060708BC0000200000000025
:1013C8000000000000000000000000000000000015
:1013D8000000000000000000000000000000000005
:1013E80000000000000000000000000000000000F5
:1013F80000000000000000000000000000000000E5
:1014080000000000000000000000000000000000D4
:1014180000000000000000000000000000000000C4
:081428003C0000200000000060
:00000001FF
