:100000006F009008000000001E060000200600009F
:1000100000000000000000000000000000000000E0
:1000200000000000000000000000000000000000D0
:1000300086080000000000008608000000000000A4
:100040008608000086080000860800008608000078
:100050008608000086080000860800008608000068
:100060008608000086080000860800008608000058
:100070008608000086080000860800008608000048
:100080008608000086080000860800008608000038
:1000900086080000860800008608000000000000B6
:1000A000511126C022C206C4828282441244A24058
:1000B000310182802A86014593F6150091C232955E
:1000C00085810606F5F9828000000000634E050276
:1000D00063C305042E86AA857D5515C285466378BF
:1000E000B6006356C00006068606E36CB6FE014500
:1000F00063E4C500918D558D85820582F5FA828075
:100100008682C93F2E8582823305A04063D70500D1
:10011000B305B040C1B7B305B0408682653F330533
:10012000A0408282868263C70500634905005D376F
:100130002E858282B305B040E35B05FE3305A04007
:10014000513F3305B04082820000EFF27FF511117C
:1001500085454545EF005026854537052000EF00D1
:10016000902799477C80F1473EC48A858D47371593
:1001700001403EC223110100EF000079B7270600BD
:1001800037540040938707A81307004002C802CAEB
:1001900002CC3EC66C00916713050440FC81F883D5
:1001A000FC84EF00207E854513050440EF00B00B72
:1001B0007101E5BDEFF2DFEEB75700402A84AE844F
:1001C000138707403A85B7050200EF005011B75773
:1001D0000040138707407DF585453A85EF00300ADA
:1001E000B7070300850737570040BE851305074052
:1001F000EF00900DB707030037570040850765D51E
:100200000C20014613050740860593F5E50F3704DA
:100210000700EF00500A13042408B7570040138565
:100220000740A285EF00500AB75700407DD58145B1
:100230001385074037040700EF00B0071304440894
:10024000B757004013850740A285EF00F007B75766
:1002500000407DD5A6851385074037040700EF00D1
:10026000500513044408B7540040A2851385044088
:10027000EF0090056DD9854513850440EF00D0014E
:100280002DB593178501E18763D3070001A0B94716
:1002900063E3B70001A0EFF2BFE04111AA841305A8
:1002A00000402E84EF1000132AC29305E00A0A854D
:1002B0004480C08001379305500D0A85E53D9305C4
:1002C000000F0A85C53D9305800A0A85E53593052B
:1002D000F4FF93F5F50F0A85F13D9305300D0A857E
:1002E000D13D930500040A85F135930500040A8584
:1002F000D135930500020A85753D81450A855D3D2E
:100300009305D0080A857D35D1450A856535930565
:10031000A00D0A8545359307000281456303F4006B
:10032000C1450A85413D0A859305100861350A8556
:10033000814549350A859305900DAD3D0A85C54532
:10034000953D0A859305B00DB5350A8581459D35E6
:100350000A859305400AB93D0A859305E002993D57
:100360000A859305F00AB93502459245410135BB2E
:10037000EFF21FD3B75700402A84AE84138707409B
:100380003A85B7050200EF008075B7570040138724
:1003900007407DF585453A85EF00606EB70703009D
:1003A000850737570040BE8513050740EF00C07131
:1003B000B707030037570040850765D50C20014675
:1003C00013050740860593F5E50F37040700EF0096
:1003D000806E13042408B757004013850740A28598
:1003E000EF00806EB75700407DD59305000413855C
:1003F000074037040700EF00C06B13044408B757E9
:10040000004013850740A285EF00006CB7570040FD
:100410007DD5A6851385074037040700592D1304A1
:100420004408B7540040A28513850440EF00C0691A
:100430006DD9854513850440852585B91C316379BF
:10044000F60293978501E18763C40702935736004C
:100450009E07AE974C411377760005463316E600AB
:10046000BE95620683870500618681C65D8E90A178
:1004700082801346F6FF7D8EDDBFB335B0000146A6
:100480008147B305B0401303000818310D8363E3BF
:10049000E700828081465841329736970CA3850643
:1004A000E39B66FE850793F7F70F13060608F1BF77
:1004B000EFF21FBFAE84930510082A84E539A685A4
:1004C0002285CD39DDB6EFF2BFBD51112A848146B8
:1004D00001461C308D836364F6003101F9B6814416
:1004E00093052002228536C432C0E93102462285B6
:1004F000B28532C2C1318D4522856D399305100216
:1005000022854D3993F5F40F22856D319305F0075F
:1005100022854D315840A2462285269736970C23D6
:1005200036C08504B1351307000882461246E399A8
:10053000E4FA9304160013F6F40F9386060851BFED
:10054000EFF21FB621112AC0AE82B283B6840143F6
:1005500083C712006360F306610181BE1E8516CA5F
:100560001AC81EC63AC4B936924793563400224779
:100570003E95369554210245B3059400B3D6864086
:100580003A86858A93F5F50F553D2247B24342439B
:10059000D2429307140013F4F70F83C6220083C5D9
:1005A0001200E36DD4FA050305071373F30F1377F5
:1005B000F70F79BFB387620001443EC2F9BF03C39E
:1005C00005009307000863F2670401A0182032C8F1
:1005D0006353E6022C203E8516C63EC4E13C92479A
:1005E00042462687B386A700024593F6F60FA285FA
:1005F000813FB242A247850793F7F70F3387F20096
:100600000306070061F651014DB4EFF27FA93111E5
:10061000BA8436C2B2822E842AC08147C5B701A0EF
:1006200001A0EFF2FFA761110545D129FD226D2D33
:10063000716513050520EF000072371500001305E2
:10064000454EEF0010571136930500021305C00305
:100650000D392AC02EC20A858145053581460146DD
:1006600085450A85E13B9305400B0A8591350A854E
:10067000993DB71400000564930504510147814674
:100680001386C44E0A85253F371600009305045192
:10069000254781461306864F0A8515373716000011
:1006A0009305045151478146130686500A85013F40
:1006B0000A85113D0144A2850A85DD3B2945B92DF6
:1006C00005041374F40F9307F00FE316F4FE1304FC
:1006D000E00FA2850A85E93B7D1429451374F40FC8
:1006E000352D65F849BFEFF2BF9B371402401C401F
:1006F0003707FFF8611193E717001CC05C404145C4
:10070000F98F5CC01C403707F7FE7D17F98F1CC0BE
:100710001C403707FCFF7D17F98F1CC05C404177F8
:100720007D17F98F5CC0B7079F001CC4E12E1C4CDD
:100730003706020093E707021CCCB717014003A756
:100740000740938607401377F7F023A0E74003A7FD
:1007500007401367070823A0E74089479CCA02C0E7
:1007600002C21C4C37070140A16693E717001CCC5E
:100770005C43D58F5CC31C404167B7160240D98FDC
:100780001CC009679C42F18F3EC2824785073EC06C
:10079000924781E78247E397E7FEB71702409C4301
:1007A0001397E7006359070685473EC212478547FE
:1007B0006310F706B72702409843C176FD16719B78
:1007C00098C398431367170098C3B7170240D843DC
:1007D000D8C3D843758FD8C3D843C166558FD8C303
:1007E0009843B7060001558F98C398439316670046
:1007F000E3DD06FED843B7160240719BD8C3D84349
:1008000013672700D8C32147DC42B18BE39EE7FE84
:1008100021016FF09F8902C251BFEFF27F88371725
:1008200002405C43370400209146B18B130404015D
:100830006385D700A1466382D704B7376E019387DB
:1008400007601CC0B7160240DC420840918313F7D2
:10085000F700B707002093870700BA978C23DC4284
:1008600093F5F50F93F707083357B50081E7EFF0DD
:100870007F862A8718C06FF05F835C43B777DC02FE
:10088000938707C07DBF01A097010020938181015C
:10089000138101F6171500001305850897F5FF1F52
:1008A000938545761386818063FAC500832205000F
:1008B00023A0550011059105E3EAC5FE138581804B
:1008C0009385C1816377B500232005001105E36D91
:1008D000B5FEB722000093820288739002308D42E9
:1008E0007390428097F2FFFF9382C27193E23200CD
:1008F00073905230EFF03FDF970200009382A2D254
:100900007390123473002030944593F7060193F2EC
:10091000F60081C7DC41B3E2F20083D3050093F710
:10092000F30FA5C303230500611122C226C081472E
:10093000130480029304800405473316F70033F74D
:10094000C3006312E602939527003D473317B700B3
:100950001347F7FF33736700B395B20033E36500C5
:10096000639D860050C985072147E397E7FC124441
:1009700023206500824421018280E39696FE10C9FF
:10098000DDB78280EFF2CFF1111146212A842800D1
:100990002EC05122C246C204C18093F404FCB74564
:1009A0000F00938505243685C20436C2C180EFF05E
:1009B0006FF2458D420541814AA01E209246C20732
:1009C000C183F99BC207C1831EA082479043E167A0
:1009D0009387076A9315160063E6C7043685EFF020
:1009E0006FEFAA874205418191466373D500914715
:1009F0001395070141814AAC1E20024793E7170077
:100A00001EA01E2056233227C207C183D18E93F722
:100A100057BFD58F1EA016275E27D58F1EA4710144
:100A20006FF0AFE88247EA23B167FD176310F50264
:100A3000B2953685EFF00FEA4205418193174501E3
:100A400099E313651500A1675D8D75B7B387C50080
:100A50008E07B385C7003685EFF0CFE742054181A9
:100A600091675D8DE1BF1E2189C593E717001EA127
:100A70008280C207C183F99BC207C183CDBF1E21FB
:100A800089C593E707101EA18280C207C18393F72F
:100A9000F7EFC207C183C5BF1E2189C593E70720B1
:100AA0001EA18280C207C18393F7F7DFC207C1830B
:100AB000C5BF0EA9828093F7E50F19C293E7150011
:100AC000C207C1831EA982805E290A2D42055D8D61
:100AD0006D8D220521810D8D1335150082805E21DB
:100AE0005A29C2076D8FC18309CB13D505017D8DAE
:100AF000137505703335A00082800145828023A8DC
:100B0000A1808280371702401C430E0593F777F0CF
:100B10005D8D08C38280EFF2AFD8371702405C4387
:100B200091462A84B18B6385D700A1466380D7089C
:100B3000B7376E01938707601CC0B7160240DC42CE
:100B4000918313F7F700B707002093878702BA97BE
:100B50008C23DC42184093F5F50F93F707083355C3
:100B6000B70081E73A85EFF0EFD648C008C448C423
:100B7000B7170240DC438D46AD83FD8B13D737009A
:100B80008A07F18BD98F13F6370113F7370063F417
:100B9000C600138747FFB707002093874701BA971E
:100BA0008C23EFF02FD308C86FF02FD05C43B777BA
:100BB000DC02938707C049B799C5371702401C4F1D
:100BC0005D8D08CF8280B7170240984F1345F5FF1F
:100BD000798D88CF828099C5371702405C4F5D8D33
:100BE00048CF8280B7170240D84F1345F5FF798D63
:100BF000C8CF8280EFF2CFCA1629F577FD17F58F9F
:100C0000F621DA252111D58F1EA95625FD77938768
:100C1000379FF58FD6212A842EC0D58F9625D58F64
:100C2000B625D58F5EA55E29C207C18393F7F7CF9E
:100C30005D8F5AA94800C535B747014093870780A3
:100C400082456312F406C2475A24139517003E9555
:100C500042070E0541873E958C416358070486057F
:100C6000EFF04FC7930540062AC0EFF0AFC68247AA
:100C700093144500930540063E85EFF06FC85E244F
:100C8000C207C18763D507020E0593054006130509
:100C90002503EFF02FC41D89C98CC204C18006A4AE
:100CA00061016FF08FC0B24745B78A0555BF120585
:100CB0009305400613052503EFF0CFC13D89E9BF39
:100CC00091C55E250967D98F5EA582805A25F9777F
:100CD000FD17F98FD5BF93F5F51F4EA182800A212C
:100CE0006D8D3335A0008280EFF28FBBB7070020F7
:100CF00003A50701B7157A0093850520EFF08FBD96
:100D00001375F50F238BA18093175500898F8A07E0
:100D10003E950E05239AA1806FF02FB9EFF24FB8E0
:100D200037F400E05C40AA85F99B5CC003D54181A3
:100D3000EFF04FB808C8232404001C4093E71700C5
:100D40001CC0B7F700E0D843058B75DF9843799B4B
:100D500098C36FF08FB5EFF2AFB42A84116511110B
:100D6000854513050502893D930700027C803715F0
:100D700001408D473EC28A85E147130505403EC4C8
:100D8000613622C637440140B70708006C001305DE
:100D900004803ECA02C8231C0100A93D85451305F5
:100DA0000480393F71016FF04FB0EFF26FAF7111F6
:100DB000AE840144635DC402B747014013870780D6
:100DC0003A859305000432C0193FB74701401387A5
:100DD0000780024675D53387840083050700138595
:100DE00007800504C205C181FD350246E1B73285A1
:100DF00011016FF08FAB37070020130787031C43E7
:100E00009386C1813E956369D500938601E663E5CB
:100E1000A60008C33E858280FD57EDBF411106C67E
:100E20002EC00DCD1841AA8705C358417D5511CB61
:100E30008546631BD70098472300070023A20700BD
:100E40000545B240410182809847824614A39847E5
:100E5000050798C7D8437D17D8C3DDB705468A85EF
:100E6000A937F9BF011122CC2EC206CE26CA2A8488
:100E7000814793050002634506029245BE9583852E
:100E800005008DE563D8C70263D4E702198E130508
:100E9000000293F526002AC089C501E793050003E7
:100EA0002EC0858A814495EAB2840DA08507F1B7EA
:100EB0001D8EF1BF0146E1BF824522853AC832C688
:100EC0003EC4A93FA24732464247FD14E34690FE86
:100ED000B284635306008144058E63C7E702A68788
:100EE00092463387974036978305070095EDB28485
:100EF00063449004635306000146F2406244D244C6
:100F00003305F600056182801D8FBA8793050003C3
:100F1000228532C83EC63AC41137B24722474246FC
:100F2000FD17EDF7BA9465BF228532C63EC4FD3584
:100F3000A247324685076DB78245228532C43EC23C
:100F4000F13DFD142246924765B7397106DE22DC79
:100F500026DA3EC232833A8689ED92469307000331
:100F600001476C08FC86FD3DF2506254D254216169
:100F70008280AA843684AE8791CA294701446317C8
:100F8000E30063D50500B307B04005448646A309D6
:100F9000010213073103938666FC36C49A853E85A9
:100FA00032CA3AC81AC63EC0EFF08F95A5468247AE
:100FB00032434247524663D4A600A24636951305F3
:100FC00005039306F7FFA30FA7FE9A853E8532CC53
:100FD0003ACA1AC83EC636C0EFF0CF8FB247424376
:100FE0005247624663F9670401CC29CA9247898B4C
:100FF000B1C79305D002268532C40D3522467D1631
:101000009247918B95C306479307100632C4930508
:1010100000032685631EF702113593058007268598
:10102000F53B2246090479161647924682452685E5
:10103000153D229515BFAA8702478DB782469307B3
:10104000D0020144A38FF6FE9307E7FF3EC04DBFD9
:10105000F13393058005E1B7014582800145828027
:10106000130181FD22D026CE06D22AC4AE8232845C
:1010700002C681448385020089EDA24781C781456C
:101080003E85693B925002542685F2441301810249
:101090008280930750026388F500224516C88504B4
:1010A000B53BC24239A88387120013871200639CA4
:1010B000B7002245930550023AC88D334247850454
:1010C000BA82850245BFD5DB9306B0026389D70497
:1010D00063C8F600930630026386D704814705A0F3
:1010E0009306D002638AD70093060003E398D7FEE5
:1010F00013872200894721A0138722008547830692
:1011000007001306B0026383C6046341D6021306C8
:101110003002638BC602BA820145A54681A01387BF
:1011200022006DBF138722009147D1BF1306D00262
:101130006389C60013060003E39FC6FC93E72700FC
:1011400031A005078547C1BF93E747000507E1B711
:1011500013162500329506053A958502038602008E
:10116000130706FD9375F70FE3F4B6FE1307E002CD
:101170009946631EE60085028146A5450386020066
:10118000130606FD1377F60F63F5E50236C60387EF
:1011900002001306A006630DC70A6343E6021306A6
:1011A000C0046307C70A13068006630CC70881459D
:1011B0002DA813972600BA968606B29685027DBFA3
:1011C000130640076306C7081306A0076302C70893
:1011D0001306C0068145631AC700038612008D45B9
:1011E0006314E6008502914585020386020093039D
:1011F00000061307100663C4C3001307100493030B
:10120000700663C4C30693035006635376189303B2
:10121000700463C1C30493055004635BB6161307DF
:101220003004E310E6EA18409303440016CA230C86
:10123000E1001EC8A30C01000147BE862A862C08C7
:1012400049A8038612008145E311E6FA890271BFBD
:101250008502B1BF93063006E307D6FC63CEC6060F
:10126000930680056303D602A9BD93063007630485
:10127000D60463CBC6029306F0066302D60E93062D
:10128000000793E74700E31ED6E29146639FD50A25
:10129000930384000C40504016CA3AC23EC01EC898
:1012A000AA870147C146B9A0930650076308D6062E
:1012B0009306800745BF1840B726000093034400FB
:1012C0009385469111C3BA85324716CA1EC8BE8699
:1012D0002A862245413E0DA091466394D502930390
:1012E00084000C40504016CA3AC23EC01EC8AA87AD
:1012F0000547A94622458D33C243AA941E84D24293
:10130000C9B3B2460C4016C836C23AC011042A8787
:101310008546294622451539AA9461B39146639DB5
:10132000D500930384000C40504016CA3AC23EC018
:101330001EC8AA87014775BFB2460C4016C836C200
:101340003AC011042A878146E9B7B24616C80C4054
:10135000414636C23AC011042A87814665BF91468C
:10136000639ED500930384000C40504016CA3AC2D5
:101370003EC01EC8AA870147A146ADBFB2460C4079
:1013800016C836C23AC011042A878146214659B789
:101390000C401306840040403AC22A87224532C8D6
:1013A0003EC02286B687A94616CA4D39AA94424441
:1013B000B9B71301C1FD2EC832CAAA85100801456C
:1013C00006C636CC3ACE3ED032C05939B2401301AF
:1013D0004102828097F7FF1F9387C7CCAA85884375
:1013E00009A0411126C293843500F19806C622C493
:1013F000A104B14763F5F404B14463E4B4042AC022
:10140000C5201387818014438247368439E01387CF
:10141000C180184301EB3E8581453EC0692823A663
:10142000A18082473E85A6853EC071207D578247B8
:101430006314E506314798C33E85652029A0E3DEA5
:1014400004FAB1471CC10145B24022449244410113
:1014500082801840058F634E07022D466376E600B2
:1014600018C03A9404C031A058406392860223A465
:10147000E1803E85BD201305B40013074400619947
:10148000B307E540F1D33E94098F18C075BFD8C2A9
:10149000CDB7A28640409DBF130435007198E30389
:1014A00085FCB305A4403E853EC031207D57824770
:1014B000E31AE5FA41B7511122C22A842E8523ACE2
:1014C000018006C4EFF03F93FD576317F500938743
:1014D00081819C4391C31CC0A2401244310182808F
:1014E0008280828073746172740000004D616B6948
:1014F0006E6720666F6E74006973206E6F7420666D
:10150000756E6E790000000075767778797A000044
:10151000800806FFFFFFFFFFFFFFFFFFFFFFFFFF4A
:10152000FFFFFFFFFFFFFFFFFFFFFFFFFFFFFFFFCB
:10153000FFFFFFFFFFFFFFFFFFFFFFFFFFFFFFFFBB
:10154000FFFFFFFFFFFFFFFFFFFFFFFFFFFFFFFFAB
:10155000FFFFFFFFFFFFFFFFFFFFFFFFFFFFFFFF9B
:10156000FFFFFFFFFFFFFFFFFFFFFFFFFFFFFFFF8B
:10157000FFFFFFFFFFFFFFFFFFFFFFFFFFFFFFFF7B
:10158000FFFFFFFFFFFFFFFFFFFFFFFFFFFFFFFF6B
:10159000FFFFFFFFFFFFFFFFFFFFFFFFFFFFFFFF5B
:1015A000FFFFFFFFFFFFFFFFFFFFFFFFFFFFFFFF4B
:1015B000FFFFFFFFFF55FFFFFFFFFFFFFF55FFFF8F
:1015C000FFFFFFFFFF55FFFFFFFFFFFFFF55FFFF7F
:1015D000FFFFFFFFFF55FFFFFFFFFFFFFF55FFFF6F
:1015E000FFFFFFFFFF55FFFFFFFFFFFFFF55FFFF5F
:1015F000FFFFFFFFFF55FFFFFFFFFFFFFF55FFFF4F
:10160000FFFFFFFFFF55FFFFFFFFFFFFFF55FFFF3E
:10161000FFFFFFFF0000000000000000181818186E
:10162000180018180C0C0C0000000000000A0A1F1B
:101630000A1F0A0A001E05050E14140F000A0804EA
:101640000404020A000814082C1A122C08080800C6
:101650000000000000080404040404080004080852
:10166000080808040014081400000000000008081E
:101670003E08080008080800000000000000000004
:101680001E00000000000000000000080008080420
:1016900004040202000C121A1612120C00080C08A4
:1016A00008080808001C22200804023E000C101044
:1016B0000C10100C00101814123E1010003E020204
:1016C0001E20201E001C02020E12120C000F080425
:1016D00004040202000C12120C12120C000C121262
:1016E0001C10100E000000040004000000000004A4
:1016F0000004040200000402010204000000000EC5
:10170000000E00000000040810080400001C202047
:1017100018080008001C222A2A3A043C000C121265
:10172000121E1212001E22221E22221E001C020263
:101730000202021C000E12222222120E003E02029F
:101740000E02023E003E02020E020202001C0202D3
:101750003212121C0022223E22222222003E0808BF
:101760000808083E003C10101010120C0022120A4B
:10177000060A1222000202020202021E0022362A79
:101780002A222222002222262A322222000C12128F
:101790001212120C001E22221E020202000C121251
:1017A00012120A14001E22221E0A1222001C020219
:1017B0000C10100E003E080808080808002121211E
:1017C0002121211E0022222222141408002222227A
:1017D0002A2A36220022221408142222002222144D
:1017E00014080808003E20100804023E0006020209
:1017F00002020206000808101010202000302020ED
:1018000020202030000814142200000000000000F6
:101810000000001E000204000000000000001C2068
:101820003C223C000002020E12120E000000000CCE
:1018300002020C000010101C12121C0000000C12FE
:101840001E021C000018040E0404040000000C1208
:10185000121C100C0004041C2424240000000800A6
:101860000808080000000800080808060000041422
:101870000C0C1400000C080808081C0000000014E0
:101880002A2A2A000000000C121212000000000C8C
:1018900012120C000000000C12120E020000000CCC
:1018A00012121C100000001A2602020000001C0286
:1018B0000C100E000004040E0404080000000012C6
:1018C00012120C0000000022141408000000002A6C
:1018D0002A2A1400000000221408142200002214F6
:1018E000140804020000001E0804021E000804047C
:1018F0000204040800080808080808080008101076
:1019000020101008000000102A040000FF55FFFFFF
:0C191000FFFFFFFF286E756C6C290000C3
:10191C000102030405060708010203040506070873
:10192C00006CDC020204060804080C1008101820D5
:10193C001020304020406080010203040506070897
:10194C000102030405060708BC000020000000008B
:10195C00000000000000000000000000000000007B
:10196C00000000000000000000000000000000006B
:10197C00000000000000000000000000000000005B
:10198C00000000000000000000000000000000004B
:10199C00000000000000000000000000000000003B
:1019AC00000000000000000000000000000000002B
:0819BC003C00002000000000C7
:00000001FF
