:100000006F00500C000000002406000026060000CF
:1000100000000000000000000000000000000000E0
:1000200000000000000000000000000000000000D0
:10003000C208000000000000C2080000000000002C
:10004000C2080000C2080000C2080000C208000088
:10005000C2080000C2080000C2080000C208000078
:10006000C2080000C2080000C2080000C208000068
:10007000C2080000C2080000C2080000C208000058
:10008000C2080000C2080000C2080000C208000048
:10009000C2080000C2080000C20800000000000002
:1000A000511126C022C206C4828282441244A24058
:1000B000310182802A86014593F6150091C232955E
:1000C00085810606F5F9828000000000634E050276
:1000D00063C305042E86AA857D5515C285466378BF
:1000E000B6006356C00006068606E36CB6FE014500
:1000F00063E4C500918D558D85820582F5FA828075
:100100008682C93F2E8582823305A04063D70500D1
:10011000B305B040C1B7B305B0408682653F330533
:10012000A0408282868263C70500634905005D376F
:100130002E858282B305B040E35B05FE3305A04007
:10014000513F3305B04082820000EFF27FF511117C
:100150002A8485454545EF00902A854537052000CE
:10016000EF00D02B99477C80F1473EC48A858D47AC
:10017000371501403EC223110100EF00A07C22C6CA
:100180003754004091671307004002C802CA02CCEE
:100190006C0013050440FC81F883FC84EF00F0023E
:1001A000854513050440EF0070107101FDBDEFF2AD
:1001B0003FEFB75700402A84AE84138707403A8543
:1001C000B7050200EF001016B7570040138707402D
:1001D0007DF585453A85EF00F00EB70703008507EA
:1001E00037570040BE8513050740EF005012B70790
:1001F000030037570040850765D50C2001461305DD
:100200000740860593F5E50F37040700EF00100F50
:1002100013042408B757004013850740A285EF0058
:10022000100FB75700407DD581451385074037042F
:100230000700EF00700C13044408B7570040138503
:100240000740A285EF00B00CB75700407DD5A685CA
:100250001385074037040700EF00100A1304440811
:10026000B7540040A28513850440EF00500A6DD9B1
:10027000854513850440EF00900605BD9317850161
:10028000E18763D3070001A0B94763E3B70001A08A
:10029000EFF21FE14111AA841305803E2E84EF0086
:1002A000302B13050040EF00F0352AC29305E00A19
:1002B0000A854480C080E53D9305500D0A85C53D03
:1002C0009305000F0A85E5359305800A0A85C53533
:1002D0009305F4FF93F5F50F0A85D13D9305300D95
:1002E0000A85F135930500040A85D135930500048C
:1002F0000A85753D930500020A85553D81450A85AD
:100300007D359305D0080A855D35D1450A8545358B
:100310009305A00D0A85613D9307000281456303A3
:10032000F400C1450A8561350A85930510084135F9
:100330000A858145AD3D0A859305900D8D3D0A8561
:10034000C545B5350A859305B00D95350A858145B6
:10035000B93D0A859305400A993D0A859305E00257
:10036000B9350A859305F00A993502459245410150
:100370002DBB1C316379F60293978501E18763C435
:100380000702935736009E07AE974C4113777600CD
:1003900005463316E600BE95620683870500618632
:1003A00081C65D8E90A182801346F6FF7D8EDDBFF3
:1003B000B335B00001468147B305B04013030008D0
:1003C00018310D8363E3E7008280814658413297FC
:1003D00036970CA38506E39B66FE850793F7F70F18
:1003E00013060608F1BFEFF2BFCBAE8493051008E9
:1003F0002A84753BA68522855D3B45B9EFF25FCA2D
:100400005111930520022A845D33814522854533AD
:100410008D452285693B930510022285493B814524
:10042000228571339305F00722855133B75400407C
:10043000938704403E85B7050200EF00A06EB757D2
:100440000040938707407DF5138504408545B70438
:1004500003008D2D8504B757004013850740A685FE
:10046000EF00E06AB75700407DD50C2001461385A8
:100470000740860593F5E50FB704070041259384EF
:100480002408B757004013850740A6854925B7576C
:10049000004065D99305000413850740B7040700A1
:1004A000A12D9384440837550040A68513050540C7
:1004B000B92D75D90146814718300D8363EAE700ED
:1004C00037550040854513050540112D3101F1BE1A
:1004D000B7540040814693840440584026853EC46A
:1004E000329736970C2332C236C03925A2471246BE
:1004F00082463707070013074708BA85268536C4A2
:1005000032C23EC02925B7070700138747081246A5
:100510008247A2467DD1850613070008E39FE6FACD
:10052000850793F7F70F1306060879B7EFF25FB761
:100530009C21011136C69386F7FF3EC093D7F64142
:100540009D8BB6978D87850793F7F70F80312AC467
:10055000AE84130506FDBE853AC83EC2A13EA28503
:10056000913E4247930225003A949377F40F630C2F
:10057000F7040144B383540035A8135634001E9683
:100580003ECEB24710229375740085462245B3963D
:10059000B600B305F400F18E93F5F50F3A8616CC4C
:1005A0001ECA3AC8F933F247E242D2434247050431
:1005B0001374F40F8246E312D4FC924605071377B6
:1005C000F70FB6926DB70561CDB403C3050093076D
:1005D000000863FF670201A00C203E851AC832C6DE
:1005E0003EC4C93C924732462687B386A7000245DF
:1005F00093F6F60FA2851D3FA2474243850793F766
:10060000F70F3307F3000306070079F6510171BCB9
:10061000EFF21FA93111BA8436C232832E842AC068
:100620008147C5B701A001A0EFF29FA721110545A1
:10063000112B1524E525716513050520EF00E074E5
:1006400061651305056A1136930500021305C003A1
:1006500035312AC22EC448008145993B8146014666
:1006600085454800393385460546854548001133A0
:100670008946094685454800ED398D460D46854534
:100680004800C5399305400B4800B13B854513052B
:100690000002B52385477C8637150140C1473ECA15
:1006A0006C008D47130505403EC8692C4800B933DE
:1006B000014485641344F4FF3715014022868545C3
:1006C00013050540F52C1305803E59258565014726
:1006D0008146138644F19385C5F14800FD354800F5
:1006E000313B8147BE8548003EC0F53929458D25FF
:1006F00082471307F00F850793F7F70FE394E7FEA0
:100700009307E00FBE8548003EC0F1392945892591
:100710008247FD1793F7F70FF5F7814548004939F0
:1007200051BFEFF2FF97371402401C403707FFF824
:10073000611193E717001CC05C404145F98F5CC014
:100740001C403707F7FE7D17F98F1CC01C40370788
:10075000FCFF7D17F98F1CC05C4041777D17F98F36
:100760005CC0B7079F001CC4CD261C4C3706020096
:1007700093E707021CCCB717014003A707409386F5
:1007800007401377F7F023A0E74003A7074013675C
:10079000070823A0E74089479CCA02C002C21C4C3C
:1007A00037070140A16693E717001CCC5C43D58F47
:1007B0005CC31C404167B7160240D98F1CC0096753
:1007C0009C42F18F3EC2824785073EC0924781E737
:1007D0008247E397E7FEB71702409C431397E70071
:1007E0006359070685473EC2124785476310F706DF
:1007F000B72702409843C176FD16719B98C3984372
:100800001367170098C3B7170240D843D8C3D8431B
:10081000758FD8C3D843C166558FD8C39843B706E0
:100820000001558F98C3984393166700E3DD06FED9
:10083000D843B7160240719BD8C3D843136727002B
:10084000D8C32147DC42B18BE39EE7FE21016FF064
:10085000DF8502C251BFEFF2BF84371702405C430D
:10086000370400209146B18B130404016385D7003F
:10087000A1466382D704B7376E01938707601CC017
:10088000B7160240DC420840918313F7F700B70720
:10089000002093870700BA978C23DC4293F5F50F6D
:1008A00093F707083357B50081E7EFF0BF822A8737
:1008B00018C06FF08FFF5C43B777DC02938707C0E7
:1008C0007DBF01A0970100209381C1FD138101F636
:1008D00017150000130505A897F5FF1F938585726E
:1008E0001386818063FAC5008322050023A055008A
:1008F00011059105E3EAC5FE138581809385C181C9
:100900006377B500232005001105E36DB5FEB7221E
:10091000000093820288739002308D42739042806F
:1009200097F2FFFF9382026E93E23200739052308F
:10093000EFF03FDF97020000938242CF73901234B2
:1009400073002030944593F7060193F2F60081C7B7
:10095000DC41B3E2F20083D3050093F7F30FA5C3A4
:1009600003230500611122C226C0814713048002BF
:100970009304800405473316F70033F7C30063126E
:10098000E602939527003D473317B7001347F7FF5B
:1009900033736700B395B20033E36500639D86004F
:1009A00050C985072147E397E7FC124423206500DF
:1009B000824421018280E39696FE10C9DDB78280D1
:1009C00019C20CC982804CC98280EFF26FED1111FF
:1009D00046212A8428002EC05122C246C204C1806A
:1009E00093F404FCB7450F00938505243685C204B3
:1009F00036C2C180EFF00FEE458D420541814AA01D
:100A00001E209246C207C183F99BC207C1831EA064
:100A100082479043E1679387076A9315160063E660
:100A2000C7043685EFF00FEBAA8742054181914656
:100A30006373D50091471395070141814AAC1E208D
:100A4000024793E717001EA01E2056233227C20735
:100A5000C183D18E93F757BFD58F1EA016275E276F
:100A6000D58F1EA471016FF04FE48247EA23B1676E
:100A7000FD176310F502B2953685EFF0AFE542053C
:100A800041819317450199E313651500A1675D8DB9
:100A900075B7B387C5008E07B385C7003685EFF0FD
:100AA0006FE34205418191675D8DE1BF1E2189C5DC
:100AB00093E717001EA18280C207C183F99BC2077A
:100AC000C183CDBF1E2189C593E707101EA1828077
:100AD000C207C18393F7F7EFC207C183C5BF1E21C9
:100AE00089C593E707201EA18280C207C18393F7BF
:100AF000F7DFC207C183C5BF0EA9828093F7E50F58
:100B000019C293E71500C207C1831EA982805E291E
:100B10000A2D42055D8D6D8D220521810D8D1335C8
:100B2000150082805E215A29C2076D8FC18309CBCF
:100B300013D505017D8D137505703335A0008280B6
:100B40000145828023A8A1808280371702401C4380
:100B50000E0593F777F05D8D08C38280EFF24FD4D6
:100B6000371702405C4391462A84B18B6385D700D6
:100B7000A1466380D708B7376E01938707601CC012
:100B8000B7160240DC42918313F7F700B707002045
:100B900093878702BA978C23DC42184093F5F50FB0
:100BA00093F707083355B70081E73A85EFF08FD206
:100BB00048C008C448C4B7170240DC438D46AD8323
:100BC000FD8B13D737008A07F18BD98F13F63701C6
:100BD00013F7370063F4C600138747FFB7070020F9
:100BE00093874701BA978C23EFF0CFCE08C86FF0F8
:100BF000CFCB5C43B777DC02938707C049B799C571
:100C0000371702401C4F5D8D08CF8280B717024016
:100C1000984F1345F5FF798D88CF828099C5371796
:100C200002405C4F5D8D48CF8280B7170240D84F9D
:100C30001345F5FF798DC8CF8280EFF26FC6162974
:100C4000F577FD17F58FF621DA252111D58F1EA92D
:100C50005625FD779387379FF58FD6212A842EC09E
:100C6000D58F9625D58FB625D58F5EA55E29C2076F
:100C7000C18393F7F7CF5D8F5AA94800C535B747B1
:100C800001409387078082456312F406C2475A24C5
:100C9000139517003E9542070E0541873E958C41FE
:100CA000635807048605EFF0EFC2930540062AC09B
:100CB000EFF04FC2824793144500930540063E85EE
:100CC000EFF00FC45E24C207C18763D507020E058B
:100CD0009305400613052503EFF0CFBF1D89C98C8E
:100CE000C204C18006A461016FF02FBCB24745B7B2
:100CF0008A0555BF12059305400613052503EFF03D
:100D00006FBD3D89E9BF91C55E250967D98F5EA595
:100D100082805A25F977FD17F98FD5BFEFF24FB8CA
:100D2000B707002003A50701B7157A0093850520B2
:100D3000EFF04FBA1375F50F238BA1809317550071
:100D4000898F8A073E950E05239AA1806FF0EFB533
:100D5000EFF20FB537F400E05C40AA85F99B5CC068
:100D600003D54181EFF00FB508C8232404001C40CF
:100D700093E717001CC0B7F700E0D843058B75DF79
:100D80009843799B98C36FF04FB2EFF26FB12A840A
:100D9000116511118545130505029535930700026C
:100DA0007C80371501408D473EC28A85E147130597
:100DB00005403EC4413E22C637440140B707080003
:100DC0006C00130504803ECA02C8231C0100B5351F
:100DD000854513050480053F71016FF00FAD37079E
:100DE0000020130787031C439386C1813E956369E6
:100DF000D500938601E663E5A60008C33E858280A0
:100E0000FD57EDBF97F7FF1F9387C729AA85884332
:100E100009A0411126C293843500F19806C622C468
:100E2000A104B14763F5F404B14463E4B4042AC0F7
:100E3000F9281387818014438247368439E0138769
:100E4000C180184301EB3E8581453EC0692823A639
:100E5000A18082473E85A6853EC071207D5782478E
:100E60006314E506314798C33E855D2029A0E3DE83
:100E700004FAB1471CC10145B240224492444101E9
:100E800082801840058F634E07022D466376E60088
:100E900018C03A9404C031A058406392860223A43B
:100EA000E1803E85B5201305B40013074400619925
:100EB000B307E540F1D33E94098F18C075BFD8C27F
:100EC000CDB7A28640409DBF130435007198E3035F
:100ED00085FCB305A4403E853EC031207D57824746
:100EE000E31AE5FA41B7511122C22A842E8523ACB8
:100EF000018006C4ED35FD576317F50093878181A6
:100F00009C4391C31CC0A240124431018280828064
:100F10008280000030313031303100001010FFFF8E
:100F200001800180018001800180018001800180B9
:100F3000018001800180018001800180FFFFFFFFAF
:100F4000FFFFFFFFFFFFFFFFFFFFFFFFFFFFFFFFB1
:100F5000FFFFFFFFFFFFFFFFFFFFFFFFFFFF3F3B25
:100F60002F3D3F3D3F333F353F3D2F3F2D353F35F3
:100F70003F3D3D3F3D353F3B3F393F3F3D3F3F2BB1
:100F80003F3D2F3D2F353F3F2F3D352F3D3F3F3BD1
:100F90003B3F3B3F3B3B3F3F3F2F3F3F2F3B3F3F95
:100FA0003D373D3D2F3F3F3F3D3F3F3D3F213F3F91
:100FB000353B2F3D3F2F3F3F2D3D373D2F3D3F3BA5
:100FC0002F3D3F2D3F333F353F393F3D3F3D3F3381
:100FD0003F2D3F3F15233F392F313F353F3F3F3BAB
:100FE0003F392F3F3F313F393F3B3B3F3B3F3F3F47
:100FF0002D3F3D2F3D3B3F2F3D3F373D3B3F3F3F4B
:101000002D3F3D2B3D373F2F3D373F3B3F2D3F3F52
:10101000353F3B3F3B3F3F293F2F3F3B3F293F3F32
:101020003F3F3F3F3F3F000000000000002A3F3F9E
:101030003F3F3F3F3F3F040000000000002A3F3F8A
:101040003F3F3F3F3F3F000000000000002A0000FC
:101050000000000000123F3F3F3F3F3F3F3F000086
:1010600000000000002A3F3F3F3F3F3F3F3F00005E
:1010700000000000002A3F3F3F3F3F3F3F3F00004E
:1010800000000000002A3F3F3F3F3F3F3F3F00003E
:1010900000000000002A3F3F3F3F3F3F3F3F20000E
:1010A00000000000002A3F3F3F3F3F3F3F3F2000FE
:1010B00000000000002A3F3F3F3F3F3F3F3F2000EE
:1010C00000000000002A3F3F3F3F3F3F3F3F3F3F80
:1010D0003F3F3F3F3F3F200000000000002A3F3FCE
:1010E0003F3F3F3F3F3F200000000000002A3F3FBE
:1010F0003F3F3F3F3F3F200000000000002A3F3FAE
:101100003F3F3F3F3F3F200000000000002A3F3F9D
:101110003F3F3F3F3F3F200000000000002A3F3F8D
:101120003F3F3F3F3F3F200000000000002A3F3F7D
:101130003F3F3F3F3F3F200000000000002A3F3F6D
:101140003F3F3F3F3F3F000000000000002A2000DB
:1011500000000000002A3F3B2F392F3F2F3D3F3931
:101160003F2F393F2D353F333F3D3F3F3D333F39E3
:101170003F2D3F3D2F393F393F3F393F3D353F33CD
:101180003D3B3F3D3F3F3F333F3D2F3F2D3B3F3FAB
:101190002D3F313F2D3F3F3B3B3F3B3F3B3B3F3FA5
:1011A0002F3F3F2F3F3B3F3F3D373D373D3F3F3F89
:1011B0003D3F3D3F3F313F3F353B2F3D3F2D3F3F83
:1011C0002D3D372D3F3F3F333F3D2F3F3D333F398F
:1011D0002F393F3F3D3F3F333F3D2F3F350B3F3999
:1011E0002F393B3D2F3D3F2B3F353F3F2F393F3977
:1011F0003F3B3F3B3F3B3F3F2D3F3D2F3D3B3F3D37
:101200002F3F353F3B3F3F2F3D3F2D3B353F3F3F3E
:101210002D373B3F2F3D3F3F353F3B3F3B3F3F213E
:101220003F3F373F3F213F3F3F3F3F3F3F3F3F3FF4
:101230003F3F3F3F3F100000000000002A3F3F3F7C
:101240003F3F3F3F3F000000000000001200000051
:1012500000000000143F3F3F3F3F3F3F3F02000080
:10126000000000002A3F3F3F3F3F3F3F3F0000005C
:10127000000000002A3F3F3F3F3F3F3F3F0000004C
:10128000000000002A3F3F3F3F3F3F3F3F0000003C
:10129000000000002A3F3F3F3F3F3F3F3F0000002C
:1012A000000000002A3F3F3F3F3F3F3F3F200000FC
:1012B000000000002A3F3F3F3F3F3F3F3F200000EC
:1012C000000000002A3F3F3F3F3F3F3F3F3F3F3F3F
:1012D0003F3F3F3F3F100000000000002A3F3F3FDC
:1012E0003F3F3F3F3F200000000000002A3F3F3FBC
:1012F0003F3F3F3F3F200000000000002A3F3F3FAC
:101300003F3F3F3F3F200000000000002A3F3F3F9B
:101310003F3F3F3F3F200000000000002A3F3F3F8B
:101320003F3F3F3F3F200000000000002A3F3F3F7B
:101330003F3F3F3F3F200000000000002A3F3F3F6B
:101340003F3F3F3F3F000000000000002A00000038
:101350000102030405060708010203040506070845
:10136000006CDC020204060804080C1008101820A7
:101370001020304020406080010203040506070869
:101380000102030405060708BC000020000000005D
:10139000000000000000000000000000000000004D
:1013A000000000000000000000000000000000003D
:1013B000000000000000000000000000000000002D
:1013C000000000000000000000000000000000001D
:1013D000000000000000000000000000000000000D
:1013E00000000000000000000000000000000000FD
:0813F0003C0000200000000099
:00000001FF
