:100000006F00404A000000008402000086020000E9
:1000100000000000000000000000000000000000E0
:1000200000000000000000000000000000000000D0
:10003000A204000000000000A20400000000000074
:10004000A2040000A2040000A2040000A204000018
:10005000A2040000A2040000A2040000A204000008
:10006000A2040000A2040000A2040000A2040000F8
:10007000A2040000A2040000A2040000A2040000E8
:10008000A2040000A2040000A2040000A2040000D8
:10009000A2040000A2040000A2040000000000006E
:1000A000511126C022C206C4828282441244A24058
:1000B000310182802A86014593F6150091C232955E
:1000C00085810606F5F9828000000000634E050276
:1000D00063C305042E86AA857D5515C285466378BF
:1000E000B6006356C00006068606E36CB6FE014500
:1000F00063E4C500918D558D85820582F5FA828075
:100100008682C93F2E8582823305A04063D70500D1
:10011000B305B040C1B7B305B0408682653F330533
:10012000A0408282868263C70500634905005D376F
:100130002E858282B305B040E35B05FE3305A04007
:10014000513F3305B04082820000EFF27FF511117C
:10015000854545456925854537052000452599474D
:100160007C80F1473EC48A858D47371501403EC2E9
:1001700023110100652EE167375400409387076A19
:100180001307004002C802CA02CC3EC66C00916749
:1001900013050440FC81F883FC842129854513055F
:1001A0000440E521710111B7EFF29FEFB75700400E
:1001B0002A84AE84138707403A85B705020091234D
:1001C000B75700401387074065F985453A85D1291F
:1001D000B7070300850737570040BE851305074062
:1001E0003123B70703003757004085076DD50C2032
:1001F000014613050740860593F5E50F3704070010
:10020000E92913042408B757004013850740A28545
:10021000F129B757004065D9814513850740370458
:100220000700552913044408B757004013850740B9
:10023000A2856D29B757004065D9A685138507406B
:1002400037040700492913044408B7540040A28525
:1002500013850440612975D9854513850440B92962
:10026000A9B593178501E18763D3070001A0EFF2D9
:100270003FE3711148809305E00A0A85353708800D
:10028000110125B501A001A0EFF29FE15111054533
:1002900049296522592311658545450502C002C2D9
:1002A00002C4352B854537052000892B9307000AAA
:1002B0007C80C147371501403EC48A858D473EC2C8
:1002C000B52461351305C003693F1305401F612341
:1002D00005469305000237150140F92401469305B0
:1002E000000837150140C9241305401FAD230546FA
:1002F0009305000837150140452C0146930500027F
:10030000371501405524D1B7EFF29FD93714024079
:100310001C403707FFF8611193E717001CC05C40D1
:100320004145F98F5CC01C403707F7FE7D17F98FF8
:100330001CC01C403707FCFF7D17F98F1CC05C40B8
:1003400041777D17F98F5CC0B7079F001CC4F92E59
:100350001C4C3706020093E707021CCCB71701407C
:1003600003A70740938607401377F7F023A0E740E1
:1003700003A707401367070823A0E74089479CCAE3
:1003800002C002C21C4C37070140A16693E7170068
:100390001CCC5C43D58F5CC31C404167B716024040
:1003A000D98F1CC009679C42F18F3EC282478507E6
:1003B0003EC0924781E78247E397E7FEB7170240C6
:1003C0009C431397E7006358070685473EC21247D0
:1003D00085476310F706B72702409843C176FD169C
:1003E000719B98C398431367170098C3B7170240CF
:1003F000D843D8C3D843758FD8C3D843C166558F67
:10040000D8C39843B7060001558F98C398439316F5
:100410006700E3DD06FED843B7160240719BD8C3E0
:10042000D84313672700D8C32147DC42B18BE39E32
:10043000E7FE21019DB902C259BFEFF27FC637170F
:1004400002405C43370400209146B18B1304040141
:100450006385D700A1466380D704B7376E019387C1
:1004600007601CC0B7160240DC420840918313F7B6
:10047000F700B707002093870700BA978C23DC4268
:1004800093F5F50F93F707083357B50099E39931C2
:100490002A8718C019B95C43B777DC02938707C075
:1004A000C9B701A09701002093814139138181FCD4
:1004B000170500001305453E97050020938585B478
:1004C00017060020130686B763FAC50083220500CD
:1004D00023A0550011059105E3EAC5FE170500208C
:1004E0001305C5B5938581806377B500232005008A
:1004F0001105E36DB5FEB722000093820288739068
:1005000002308D427390428097020000938282AF46
:1005100093E2320073905230EFF01FDF9702000039
:100520009382C2D67390123473002030944593F7AF
:10053000060193F2F60081C7DC41B3E2F20083D3F7
:10054000050093F7F30FA5C303230500611122C231
:1005500026C08147130480029304800405473316A4
:10056000F70033F7C3006312E602939527003D4777
:100570003317B7001347F7FF33736700B395B20023
:1005800033E36500639D860050C985072147E397E3
:10059000E7FC124423206500824421018280E39617
:1005A00096FE10C9DDB7828019C20CC982804CC981
:1005B0008280EFF2FFAE111146212A8428002EC05E
:1005C000BD2AC246C204C18093F404FCB7450F00A3
:1005D000938505243685C20436C2C180E53C458D2D
:1005E000420541814AA01E209246C207C183F99B61
:1005F000C207C1831EA082479043E1679387076AC1
:100600009315160063E4C7043685E934AA874205CA
:10061000418191466373D50091471395070141814C
:100620004AAC1E20024793E717001EA01E20562347
:100630003227C207C183D18E93F757BFD58F1EA033
:1006400016275E27D58F1EA4710185B48247EA2341
:10065000B167FD17631FF500B2953685A53C4205CD
:1006600041819317450199E313651500A1675D8DDD
:1006700045BFB387C5008E07B385C7003685993C53
:100680004205418191675D8DE9BF1E2189C593E7D0
:1006900017001EA18280C207C183F99BC207C183D4
:1006A000CDBF1E2189C593E707101EA18280C20716
:1006B000C18393F7F7EFC207C183C5BF1E2189C568
:1006C00093E707201EA18280C207C18393F7F7DF5B
:1006D000C207C183C5BF0EA9828093F7E50F19C277
:1006E00093E71500C207C1831EA982805E290A2DE7
:1006F00042055D8D6D8D220521810D8D133515000F
:1007000082805E215A29C2076D8FC18309CB13D520
:1007100005017D8D137505703335A000828001457C
:100720008280B707002023ACA702828037170240DF
:100730001C430E0593F777F05D8D08C38280EFF2BE
:100740003F96371702405C4391462A84B18B6385FC
:10075000D700A146638FD706B7376E01938707602E
:100760001CC0B7160240DC42918313F7F700B707AD
:10077000002093878702BA978C23DC42184093F5B8
:10078000F50F93F707083355B70099E33A85993287
:1007900048C008C448C4B7170240DC438D46AD8347
:1007A000FD8B13D737008A07F18BD98F13F63701EA
:1007B00013F7370063F4C600138747FFB70700201D
:1007C00093874701BA978C23EFF0DF9008C86FF04A
:1007D000DF8D5C43B777DC02938707C051B799C5BB
:1007E000371702401C4F5D8D08CF8280B71702403B
:1007F000984F1345F5FF798D88CF828099C53717BB
:1008000002405C4F5D8D48CF8280B7170240D84FC1
:100810001345F5FF798DC8CF8280EFF27F88B70747
:10082000002003A50701B7157A0093850520EFF096
:100830007F8A1375F50FB7070020238FA702931740
:100840005500898F8A073E950E05B7070020239E25
:10085000A7026FF09F85EFF2BF8437F400E05C40A1
:10086000AA85F99B5CC0B707002003D5C703EFF04A
:100870007F8408C8232404001C4093E717001CC091
:10088000B7F700E0D843058B75DF9843799B98C391
:040890006FF0BF81C5
:10089400010203040506070801020304050607080C
:1008A400006CDC020204060804080C10081018206E
:1008B4001020304020406080010203040506070830
:0808C400010203040506070808
:00000001FF
