:100000006F00A0650000000094040000960400004A
:1000100000000000000000000000000000000000E0
:1000200000000000000000000000000000000000D0
:100030005806000000000000580600000000000004
:100040005806000058060000580600005806000038
:100050005806000058060000580600005806000028
:100060005806000058060000580600005806000018
:100070005806000058060000580600005806000008
:1000800058060000580600005806000058060000F8
:100090005806000058060000580600000000000046
:1000A000511126C022C206C4828282441244A24058
:1000B00031018280634E050263C305042E86AA8542
:1000C0007D5515C285466378B6006356C0000606A6
:1000D0008606E36CB6FE014563E4C500918D558D3F
:1000E00085820582F5FA82808682C93F2E858282CA
:1000F0003305A04063D70500B305B040C1B7B305D1
:10010000B0408682653F3305A0408282868263C705
:100110000500634905005D372E858282B305B04036
:10012000E35B05FE3305A040513F3305B0408282BA
:100130000000EFF2FFF6111185454545EF00F00490
:10014000854537052000EF00300699477C80F14750
:100150003EC48A858D47371501403EC223110100F8
:10016000AD2BE167375400409387076A13070040BF
:1001700002C802CA02CC3EC66C0091671305044057
:10018000FC81F883FC84C12B854513050440EF00F6
:10019000A06A710119BFEFF2BFF0B75700402A847F
:1001A000AE84138707403A85B7050200EF00407020
:1001B000B7570040138707407DF585453A85EF0026
:1001C0002069B7070300850737570040BE85130530
:1001D0000740EF00806CB7070300375700408507E2
:1001E00065D50C20014613050740860593F5E50FFC
:1001F00037040700EF00406913042408B757004094
:1002000013850740A285EF004069B75700407DD5B0
:1002100081451385074037040700EF00A0661304EB
:100220004408B757004013850740A285EF00E066F9
:10023000B75700407DD5A6851385074037040700D2
:10024000EF00406413044408B7540040A2851385AE
:100250000440EF0080646DD9854513850440312545
:10026000A9B593178501E18763D3070001A0EFF2D9
:100270003FE33111AA8413050020EF00607A2AC4FD
:100280002A849307052021453EC0EF00607982470C
:1002900008C01104E319F4FE48009305E00A448203
:1002A000DD3D48009305500DFD35480093050008DD
:1002B000DD3548009305800AF93D48009305F003B9
:1002C000D93D48009305300DF93548008145E135A9
:1002D000480093050004C135480093050002653DC0
:1002E000480081454D3D48009305D0086D354800D4
:1002F000D1455535480093051008713D48008145AA
:10030000593D48009305400A793548009305E002BD
:10031000593548009305F00ABD3D1245A2455101EB
:1003200069B3EFF2FFD7B75700402A84AE84138732
:1003300007403A85B7050200A52BB7570040138741
:10034000074065F985453A852123B70703008507EE
:1003500037570040BE85130507408123B7070300C8
:100360003757004085076DD50C200146130507401F
:10037000860593F5E50F3704070039231304240895
:10038000B757004013850740A285012BB75700409F
:1003900065D9930500041385074037040700DD2164
:1003A00013044408B757004013850740A285F52180
:1003B000B757004065D9A685138507403704070065
:1003C000D12113044408B7540040A285138504408A
:1003D000E92175D98545138504404129F9B1B33523
:1003E000B0000147B305B040130600202143814708
:1003F0005441BE9694429107BA968CA2E39AC7FEE6
:100400000507E31667FE8280EFF29FC9AE8493056D
:1004100020022A844933A6852285B53B9D45228545
:100420009D3B61B1EFF2DFC7AE84930510022A84D1
:100430009D33A685228585339305F0072285A13B50
:10044000ADB1EFF2FFC56111AA87814493F6F40FB5
:100450000144B6853E8536C23EC07D3782479375DE
:10046000F40F3E85C1378247131624000504D84394
:100470003E853297184326970C23653513070008ED
:1004800082479246E317E4FC85042147E390E4FCAD
:10049000210121B901A001A0EFF29FC06111054522
:1004A0000529B9220D2371311305C0035D3B2AC014
:1004B0002EC20A85814525370A85613701A0EFF2F2
:1004C0003FBE371402401C403707FFF8611193E725
:1004D00017001CC05C404145F98F5CC01C403707C9
:1004E000F7FE7D17F98F1CC01C403707FCFF7D17F6
:1004F000F98F1CC05C4041777D17F98F5CC0B7074E
:100500009F001CC4C92E1C4C3706020093E707024B
:100510001CCCB717014003A7074093860740137709
:10052000F7F023A0E74003A707401367070823A0BD
:10053000E74089479CCA02C002C21C4C37070140F1
:10054000A16693E717001CCC5C43D58F5CC31C40AD
:100550004167B7160240D98F1CC009679C42F18FD2
:100560003EC2824785073EC0924781E78247E397B4
:10057000E7FEB71702409C431397E700635807064E
:1005800085473EC2124785476310F706B7270240EA
:100590009843C176FD16719B98C398431367170063
:1005A00098C3B7170240D843D8C3D843758FD8C370
:1005B000D843C166558FD8C39843B7060001558FFD
:1005C00098C3984393166700E3DD06FED843B71639
:1005D0000240719BD8C3D84313672700D8C3214773
:1005E000DC42B18BE39EE7FE2101C1B402C259BFD8
:1005F000EFF21FAB371702405C43370400209146EF
:10060000B18B130404016385D700A1466380D7042E
:10061000B7376E01938707601CC0B7160240DC42F3
:100620000840918313F7F700B7070020938707006E
:10063000BA978C23DC4293F5F50F93F707083357ED
:10064000B50099E3A53C2A8718C085B45C43B77709
:10065000DC02938707C0C9B701A0970100209381EE
:100660006124138101F6170500001305A54C9705B9
:100670000020938525991386818063FAC500832223
:10068000050023A0550011059105E3EAC5FE138579
:1006900081809385C1816377B50023200500110512
:1006A000E36DB5FEB722000093820288739002309A
:1006B0008D4273904280970200009382A29493E24D
:1006C000320073905230EFF09FDF97020000938268
:1006D000E2DC7390123473002030944593F70601E6
:1006E00093F2F60081C7DC41B3E2F20083D3050048
:1006F00093F7F30FA5C303230500611122C226C09F
:100700008147130480029304800405473316F700E1
:1007100033F7C3006312E602939527003D47331772
:10072000B7001347F7FF33736700B395B20033E3A5
:100730006500639D860050C985072147E397E7FC64
:10074000124423206500824421018280E39696FEB4
:1007500010C9DDB78280EFF2BF94111146212A84BF
:1007600028002EC05122C246C204C18093F404FC6A
:10077000B7450F00938505243685C20436C2C18073
:10078000EFF0DF93458D420541814AA01E2092463D
:10079000C207C183F99BC207C1831EA08247904351
:1007A000E1679387076A9315160063E6C7043685E9
:1007B000EFF0DF90AA874205418191466373D5002F
:1007C00091471395070141814AAC1E20024793E7E8
:1007D00017001EA01E2056233227C207C183D18EC8
:1007E00093F757BFD58F1EA016275E27D58F1EA45F
:1007F00071016FF09F8B8247EA23B167FD17631089
:10080000F502B2953685EFF07F8B42054181931753
:10081000450199E313651500A1675D8D75B7B38731
:10082000C5008E07B385C7003685EFF03F894205C6
:10083000418191675D8DE1BF1E2189C593E7170056
:100840001EA18280C207C183F99BC207C183CDBFAD
:100850001E2189C593E707101EA18280C207C183AC
:1008600093F7F7EFC207C183C5BF1E2189C593E780
:1008700007201EA18280C207C18393F7F7DFC2075A
:10088000C183C5BF0EA9828093F7E50F19C293E714
:100890001500C207C1831EA982805E290A2D420568
:1008A0005D8D6D8D220521810D8D133515008280A2
:1008B0005E215A29C2076D8FC18309CB13D505016B
:1008C0007D8D137505703335A000828001458280CF
:1008D00023A8A1808280371702401C430E0593F79E
:1008E00077F05D8D08C38280EFF28FFB37170240EF
:1008F0005C4391462A84B18B6385D700A14663800F
:10090000D708B7376E01938707601CC0B71602403F
:10091000DC42918313F7F700B70700209387870223
:10092000BA978C23DC42184093F5F50F93F707082C
:100930003355B70081E73A85EFF04FF848C008C457
:1009400048C4B7170240DC438D46AD83FD8B13D7F7
:1009500037008A07F18BD98F13F6370113F7370069
:1009600063F4C600138747FFB7070020938747014A
:10097000BA978C23EFF08FF408C86FF00FF35C4345
:10098000B777DC02938707C049B799C5371702408C
:100990001C4F5D8D08CF8280B7170240984F1345DA
:1009A000F5FF798D88CF828099C5371702405C4F5B
:1009B0005D8D48CF8280B7170240D84F1345F5FFB1
:1009C000798DC8CF8280EFF2AFEDB707002003A585
:1009D0000701B7157A0093850520EFF02FEE137508
:1009E000F50F238BA18093175500898F8A073E95B9
:1009F0000E05239AA1806FF04FEB370700201307F5
:100A000087031C439386C1813E956369D500938615
:100A100001E663E5A60008C33E858280FD57EDBF71
:100A200097F7FF1F93870768AA85884309A041119C
:100A300026C293843500F19806C622C4A104B147AA
:100A400063F5F404B14463E4B4042AC0F9281387BD
:100A5000818014438247368439E01387C18018436C
:100A600001EB3E8581453EC0692823A6A1808247CF
:100A70003E85A6853EC071207D5782476314E506FA
:100A8000314798C33E855D2029A0E3DE04FAB147D3
:100A90001CC10145B2402244924441018280184069
:100AA000058F634E07022D466376E60018C03A9420
:100AB00004C031A058406392860223A4E1803E85A1
:100AC000B5201305B400130744006199B307E5404E
:100AD000F1D33E94098F18C075BFD8C2CDB7A28696
:100AE00040409DBF130435007198E30385FCB305B6
:100AF000A4403E853EC031207D578247E31AE5FA87
:100B000041B7511122C22A842E8523AC018006C42C
:100B1000ED35FD576317F500938781819C4391C3A1
:100B20001CC0A24012443101828082808280000079
:100B3000010203040506070801020304050607086D
:100B4000006CDC020204060804080C1008101820CF
:100B50001020304020406080010203040506070891
:100B60000102030405060708BC0000200000000085
:100B70000000000000000000000000000000000075
:100B80000000000000000000000000000000000065
:100B90000000000000000000000000000000000055
:100BA0000000000000000000000000000000000045
:100BB0000000000000000000000000000000000035
:100BC0000000000000000000000000000000000025
:080BD0003C00002000000000C1
:00000001FF
