:100000006F00E06B00000000D6040000D804000080
:1000100000000000000000000000000000000000E0
:1000200000000000000000000000000000000000D0
:10003000BC06000000000000BC060000000000003C
:10004000BC060000BC060000BC060000BC060000A8
:10005000BC060000BC060000BC060000BC06000098
:10006000BC060000BC060000BC060000BC06000088
:10007000BC060000BC060000BC060000BC06000078
:10008000BC060000BC060000BC060000BC06000068
:10009000BC060000BC060000BC060000000000001A
:1000A000511126C022C206C4828282441244A24058
:1000B00031018280634E050263C305042E86AA8542
:1000C0007D5515C285466378B6006356C0000606A6
:1000D0008606E36CB6FE014563E4C500918D558D3F
:1000E00085820582F5FA82808682C93F2E858282CA
:1000F0003305A04063D70500B305B040C1B7B305D1
:10010000B0408682653F3305A0408282868263C705
:100110000500634905005D372E858282B305B04036
:10012000E35B05FE3305A040513F3305B0408282BA
:100130000000EFF2FFF6111185454545EF00300B49
:10014000854537052000EF00700C99477C80F1470A
:100150003EC48A858D47371501403EC223110100F8
:10016000F92BE167375400409387076A1307004073
:1001700002C802CA02CC3EC66C0091671305044057
:10018000FC81F883FC84EF0040638545130504403F
:10019000EF00C070710111BFEFF29FF0B757004040
:1001A0002A84AE84138707403A85B7050200EF0022
:1001B0006076B7570040138707407DF585453A853F
:1001C000EF00406FB7070300850737570040BE8533
:1001D00013050740EF00A072B70703003757004030
:1001E000850765D50C20014613050740860593F564
:1001F000E50F37040700EF00606F13042408B757BA
:10020000004013850740A285EF00606FB75700409C
:100210007DD581451385074037040700EF00C06C8A
:1002200013044408B757004013850740A285EF0028
:10023000006DB75700407DD5A6851385074037046C
:100240000700EF00606A13044408B7540040A28519
:1002500013850440EF00A06A6DD9854513850440DD
:10026000EF00E06699B593178501E18763D3070036
:1002700001A0EFF2FFE241112A8413050040AE8491
:10028000EF0050002AC29305E00A0A854080C4802E
:1002900021370A859305500D01370A85930500081B
:1002A000E53D0A859305800AC53D0A859305F0035F
:1002B000E5350A859305300DC5350A858145E93D4B
:1002C0000A8593050004C93D0A8593050002E935B6
:1002D0000A858145D1350A859305D008753D0A8583
:1002E000D1455D3D0A85930510087D350A85814518
:1002F00065350A859305400A45350A859305E00270
:10030000613D0A859305F00A413D02459245410150
:1003100069BBEFF2FFD8B75700402A84AE84138739
:1003200007403A85B7050200F523B7570040138709
:10033000074065F985453A85B52BB7070300850762
:1003400037570040BE8513050740552BB7070300FC
:100350003757004085076DD50C200146130507402F
:10036000860593F5E50F3704070049231304240895
:10037000B757004013850740A2855123B757004067
:1003800065D9930500041385074037040700A92B9E
:1003900013044408B757004013850740A2858523FE
:1003A000B757004065D9A685138507403704070075
:1003B000252B13044408B7540040A285138504403C
:1003C0003D2B75D98545138504401123F9B91C319E
:1003D000130700046391E7025C41135736001E07C0
:1003E0002E973E979377760005463316F6001C232A
:1003F0005D8E10A38280130700026390E70293577B
:1004000026009E07AE974C4106060D8ABE9585478D
:100410003396C7009C215D8E90A18280B335B000D9
:100420008146B305B040130600081303004001479E
:100430005C41B697BA978CA30507E31BC7FE93866A
:100440000608E39666FE8280EFF29FC5AE849305B0
:1004500020022A849133A68522853D3B9D45228535
:10046000253BA1B1EFF2DFC3AE84930510022A84CD
:100470002533A68522850D339305F0072285293B78
:100480002DB1EFF2FFC161112A87814601448144F9
:100490003A85A28536C23AC0453F024793F5F40F2C
:1004A0003A85C937024792465C433A85A697B69784
:1004B0008C238504B93D9307000802479246E399CF
:1004C000F4FC05041374F40FA14793860608E310A7
:1004D000F4FC2101D9BE01A001A0EFF27FBC6111A3
:1004E00005458929852A9123A93193050002130521
:1004F000C003953B2AC02EC20A8581450537854633
:10050000014689450A85E1358546114681450A85BA
:100510007D3D0A85854621468545553D0A859537A9
:1005200001A0EFF2FFB7371402401C403707FFF875
:10053000611193E717001CC05C404145F98F5CC016
:100540001C403707F7FE7D17F98F1CC01C4037078A
:10055000FCFF7D17F98F1CC05C4041777D17F98F38
:100560005CC0B7079F001CC4C92E1C4C3706020094
:1005700093E707021CCCB717014003A707409386F7
:1005800007401377F7F023A0E74003A7074013675E
:10059000070823A0E74089479CCA02C002C21C4C3E
:1005A00037070140A16693E717001CCC5C43D58F49
:1005B0005CC31C404167B7160240D98F1CC0096755
:1005C0009C42F18F3EC2824785073EC0924781E739
:1005D0008247E397E7FEB71702409C431397E70073
:1005E0006358070685473EC2124785476310F706E2
:1005F000B72702409843C176FD16719B98C3984374
:100600001367170098C3B7170240D843D8C3D8431D
:10061000758FD8C3D843C166558FD8C39843B706E2
:100620000001558F98C3984393166700E3DD06FEDB
:10063000D843B7160240719BD8C3D843136727002D
:10064000D8C32147DC42B18BE39EE7FE2101B1BC58
:1006500002C259BFEFF2DFA4371702405C433704F0
:1006600000209146B18B130404016385D700A14695
:100670006380D704B7376E01938707601CC0B71635
:100680000240DC420840918313F7F700B7070020CF
:1006900093870700BA978C23DC4293F5F50F93F705
:1006A00007083357B50099E3113C2A8718C0F5BAFB
:1006B0005C43B777DC02938707C0C9B701A09701F5
:1006C00000209381211E138101F6170500001305F8
:1006D000A54C970500209385E5921386818063FAE7
:1006E000C5008322050023A0550011059105E3EA0A
:1006F000C5FE138581809385C1816377B500232072
:1007000005001105E36DB5FEB72200009382028853
:10071000739002308D427390428097020000938262
:10072000628E93E2320073905230EFF09FDF9702B7
:1007300000009382C2DA7390123473002030944523
:1007400093F7060193F2F60081C7DC41B3E2F200B1
:1007500083D3050093F7F30FA5C3032305006111AD
:1007600022C226C0814713048002930480040547F7
:100770003316F70033F7C3006312E60293952700A0
:100780003D473317B7001347F7FF33736700B3953F
:10079000B20033E36500639D860050C98507214799
:1007A000E397E7FC12442320650082442101828004
:1007B000E39696FE10C9DDB78280EFF27F8E1111AD
:1007C00046212A8428002EC05122C246C204C1807C
:1007D00093F404FCB7450F00938505243685C204C5
:1007E00036C2C180EFF09F8D458D420541814AA000
:1007F0001E209246C207C183F99BC207C1831EA077
:1008000082479043E1679387076A9315160063E672
:10081000C7043685EFF09F8AAA8742054181914639
:100820006373D50091471395070141814AAC1E209F
:10083000024793E717001EA01E2056233227C20747
:10084000C183D18E93F757BFD58F1EA016275E2781
:10085000D58F1EA471016FF05F858247EA23B167CF
:10086000FD176310F502B2953685EFF03F8542051E
:1008700041819317450199E313651500A1675D8DCB
:1008800075B7B387C5008E07B385C7003685EFF00F
:10089000FF824205418191675D8DE1BF1E2189C5BF
:1008A00093E717001EA18280C207C183F99BC2078C
:1008B000C183CDBF1E2189C593E707101EA1828089
:1008C000C207C18393F7F7EFC207C183C5BF1E21DB
:1008D00089C593E707201EA18280C207C18393F7D1
:1008E000F7DFC207C183C5BF0EA9828093F7E50F6A
:1008F00019C293E71500C207C1831EA982805E2931
:100900000A2D42055D8D6D8D220521810D8D1335DA
:10091000150082805E215A29C2076D8FC18309CBE1
:1009200013D505017D8D137505703335A0008280C8
:100930000145828023A8A1808280371702401C4392
:100940000E0593F777F05D8D08C38280EFF24FF5C7
:10095000371702405C4391462A84B18B6385D700E8
:10096000A1466380D708B7376E01938707601CC024
:10097000B7160240DC42918313F7F700B707002057
:1009800093878702BA978C23DC42184093F5F50FC2
:1009900093F707083355B70081E73A85EFF00FF278
:1009A00048C008C448C4B7170240DC438D46AD8335
:1009B000FD8B13D737008A07F18BD98F13F63701D8
:1009C00013F7370063F4C600138747FFB70700200B
:1009D00093874701BA978C23EFF04FEE08C86FF06A
:1009E000CFEC5C43B777DC02938707C049B799C562
:1009F000371702401C4F5D8D08CF8280B717024029
:100A0000984F1345F5FF798D88CF828099C53717A8
:100A100002405C4F5D8D48CF8280B7170240D84FAF
:100A20001345F5FF798DC8CF8280EFF26FE7B707E6
:100A3000002003A50701B7157A0093850520EFF084
:100A4000EFE71375F50F238BA18093175500898F5E
:100A50008A073E950E05239AA1806FF00FE53707B0
:100A60000020130787031C439386C1813E95636969
:100A7000D500938601E663E5A60008C33E85828023
:100A8000FD57EDBF97F7FF1F9387C761AA8588437E
:100A900009A0411126C293843500F19806C622C4EC
:100AA000A104B14763F5F404B14463E4B4042AC07B
:100AB000F9281387818014438247368439E01387ED
:100AC000C180184301EB3E8581453EC0692823A6BD
:100AD000A18082473E85A6853EC071207D57824712
:100AE0006314E506314798C33E855D2029A0E3DE07
:100AF00004FAB1471CC10145B2402244924441016D
:100B000082801840058F634E07022D466376E6000B
:100B100018C03A9404C031A058406392860223A4BE
:100B2000E1803E85B5201305B400130744006199A8
:100B3000B307E540F1D33E94098F18C075BFD8C202
:100B4000CDB7A28640409DBF130435007198E303E2
:100B500085FCB305A4403E853EC031207D578247C9
:100B6000E31AE5FA41B7511122C22A842E8523AC3B
:100B7000018006C4ED35FD576317F5009387818129
:100B80009C4391C31CC0A2401244310182808280E8
:040B9000828000005F
:100B94000102030405060708010203040506070809
:100BA400006CDC020204060804080C10081018206B
:100BB400102030402040608001020304050607082D
:100BC4000102030405060708BC0000200000000021
:100BD4000000000000000000000000000000000011
:100BE4000000000000000000000000000000000001
:100BF40000000000000000000000000000000000F1
:100C040000000000000000000000000000000000E0
:100C140000000000000000000000000000000000D0
:100C240000000000000000000000000000000000C0
:080C34003C000020000000005C
:00000001FF
